{
  "contractName": "finnal",
  "abi": [
    {
      "constant": true,
      "inputs": [],
      "name": "apassword",
      "outputs": [
        {
          "internalType": "string",
          "name": "",
          "type": "string"
        }
      ],
      "payable": false,
      "stateMutability": "view",
      "type": "function"
    },
    {
      "constant": true,
      "inputs": [
        {
          "internalType": "bytes32",
          "name": "",
          "type": "bytes32"
        }
      ],
      "name": "pcccertbyhash",
      "outputs": [
        {
          "internalType": "string",
          "name": "certid",
          "type": "string"
        },
        {
          "internalType": "string",
          "name": "deptname",
          "type": "string"
        },
        {
          "internalType": "string",
          "name": "stuid",
          "type": "string"
        },
        {
          "internalType": "string",
          "name": "poy",
          "type": "string"
        },
        {
          "internalType": "string",
          "name": "class",
          "type": "string"
        },
        {
          "internalType": "uint256",
          "name": "timeOfIssue",
          "type": "uint256"
        },
        {
          "internalType": "address",
          "name": "issuedby",
          "type": "address"
        },
        {
          "internalType": "enum finnal.ustatus",
          "name": "st",
          "type": "uint8"
        },
        {
          "internalType": "bytes32",
          "name": "tcerthash",
          "type": "bytes32"
        },
        {
          "internalType": "string",
          "name": "stuname",
          "type": "string"
        },
        {
          "internalType": "string",
          "name": "father",
          "type": "string"
        },
        {
          "internalType": "string",
          "name": "collegename",
          "type": "string"
        }
      ],
      "payable": false,
      "stateMutability": "view",
      "type": "function"
    },
    {
      "constant": true,
      "inputs": [
        {
          "internalType": "string",
          "name": "",
          "type": "string"
        }
      ],
      "name": "verlist",
      "outputs": [
        {
          "internalType": "string",
          "name": "empid",
          "type": "string"
        },
        {
          "internalType": "string",
          "name": "vername",
          "type": "string"
        },
        {
          "internalType": "string",
          "name": "verpass",
          "type": "string"
        },
        {
          "internalType": "string",
          "name": "uniname",
          "type": "string"
        },
        {
          "internalType": "uint256",
          "name": "time",
          "type": "uint256"
        },
        {
          "internalType": "string",
          "name": "companyname",
          "type": "string"
        },
        {
          "internalType": "string",
          "name": "image",
          "type": "string"
        }
      ],
      "payable": false,
      "stateMutability": "view",
      "type": "function"
    },
    {
      "constant": true,
      "inputs": [],
      "name": "pcccount",
      "outputs": [
        {
          "internalType": "uint256",
          "name": "",
          "type": "uint256"
        }
      ],
      "payable": false,
      "stateMutability": "view",
      "type": "function"
    },
    {
      "constant": true,
      "inputs": [
        {
          "internalType": "string",
          "name": "",
          "type": "string"
        }
      ],
      "name": "pcccertbystudent",
      "outputs": [
        {
          "internalType": "string",
          "name": "certid",
          "type": "string"
        },
        {
          "internalType": "string",
          "name": "deptname",
          "type": "string"
        },
        {
          "internalType": "string",
          "name": "stuid",
          "type": "string"
        },
        {
          "internalType": "string",
          "name": "poy",
          "type": "string"
        },
        {
          "internalType": "string",
          "name": "class",
          "type": "string"
        },
        {
          "internalType": "uint256",
          "name": "timeOfIssue",
          "type": "uint256"
        },
        {
          "internalType": "address",
          "name": "issuedby",
          "type": "address"
        },
        {
          "internalType": "enum finnal.ustatus",
          "name": "st",
          "type": "uint8"
        },
        {
          "internalType": "bytes32",
          "name": "tcerthash",
          "type": "bytes32"
        },
        {
          "internalType": "string",
          "name": "stuname",
          "type": "string"
        },
        {
          "internalType": "string",
          "name": "father",
          "type": "string"
        },
        {
          "internalType": "string",
          "name": "collegename",
          "type": "string"
        }
      ],
      "payable": false,
      "stateMutability": "view",
      "type": "function"
    },
    {
      "constant": true,
      "inputs": [],
      "name": "now",
      "outputs": [
        {
          "internalType": "uint256",
          "name": "",
          "type": "uint256"
        }
      ],
      "payable": false,
      "stateMutability": "view",
      "type": "function"
    },
    {
      "constant": true,
      "inputs": [
        {
          "internalType": "string",
          "name": "",
          "type": "string"
        }
      ],
      "name": "odallcerts",
      "outputs": [
        {
          "internalType": "string",
          "name": "certid",
          "type": "string"
        },
        {
          "internalType": "string",
          "name": "deptname",
          "type": "string"
        },
        {
          "internalType": "string",
          "name": "stuid",
          "type": "string"
        },
        {
          "internalType": "string",
          "name": "poy",
          "type": "string"
        },
        {
          "internalType": "string",
          "name": "class",
          "type": "string"
        },
        {
          "internalType": "uint256",
          "name": "timeOfIssue",
          "type": "uint256"
        },
        {
          "internalType": "address",
          "name": "issuedby",
          "type": "address"
        },
        {
          "internalType": "enum finnal.ustatus",
          "name": "st",
          "type": "uint8"
        },
        {
          "internalType": "bytes32",
          "name": "tcerthash",
          "type": "bytes32"
        },
        {
          "internalType": "string",
          "name": "stuname",
          "type": "string"
        },
        {
          "internalType": "string",
          "name": "father",
          "type": "string"
        },
        {
          "internalType": "string",
          "name": "collegename",
          "type": "string"
        }
      ],
      "payable": false,
      "stateMutability": "view",
      "type": "function"
    },
    {
      "constant": true,
      "inputs": [
        {
          "internalType": "string",
          "name": "",
          "type": "string"
        }
      ],
      "name": "odcert",
      "outputs": [
        {
          "internalType": "string",
          "name": "certid",
          "type": "string"
        },
        {
          "internalType": "string",
          "name": "deptname",
          "type": "string"
        },
        {
          "internalType": "string",
          "name": "stuid",
          "type": "string"
        },
        {
          "internalType": "string",
          "name": "poy",
          "type": "string"
        },
        {
          "internalType": "string",
          "name": "class",
          "type": "string"
        },
        {
          "internalType": "uint256",
          "name": "timeOfIssue",
          "type": "uint256"
        },
        {
          "internalType": "address",
          "name": "issuedby",
          "type": "address"
        },
        {
          "internalType": "enum finnal.ustatus",
          "name": "st",
          "type": "uint8"
        },
        {
          "internalType": "bytes32",
          "name": "tcerthash",
          "type": "bytes32"
        },
        {
          "internalType": "string",
          "name": "stuname",
          "type": "string"
        },
        {
          "internalType": "string",
          "name": "father",
          "type": "string"
        },
        {
          "internalType": "string",
          "name": "collegename",
          "type": "string"
        }
      ],
      "payable": false,
      "stateMutability": "view",
      "type": "function"
    },
    {
      "constant": true,
      "inputs": [
        {
          "internalType": "bytes32",
          "name": "",
          "type": "bytes32"
        }
      ],
      "name": "odcertbyhash",
      "outputs": [
        {
          "internalType": "string",
          "name": "certid",
          "type": "string"
        },
        {
          "internalType": "string",
          "name": "deptname",
          "type": "string"
        },
        {
          "internalType": "string",
          "name": "stuid",
          "type": "string"
        },
        {
          "internalType": "string",
          "name": "poy",
          "type": "string"
        },
        {
          "internalType": "string",
          "name": "class",
          "type": "string"
        },
        {
          "internalType": "uint256",
          "name": "timeOfIssue",
          "type": "uint256"
        },
        {
          "internalType": "address",
          "name": "issuedby",
          "type": "address"
        },
        {
          "internalType": "enum finnal.ustatus",
          "name": "st",
          "type": "uint8"
        },
        {
          "internalType": "bytes32",
          "name": "tcerthash",
          "type": "bytes32"
        },
        {
          "internalType": "string",
          "name": "stuname",
          "type": "string"
        },
        {
          "internalType": "string",
          "name": "father",
          "type": "string"
        },
        {
          "internalType": "string",
          "name": "collegename",
          "type": "string"
        }
      ],
      "payable": false,
      "stateMutability": "view",
      "type": "function"
    },
    {
      "constant": true,
      "inputs": [
        {
          "internalType": "string",
          "name": "",
          "type": "string"
        }
      ],
      "name": "cmmallcerts",
      "outputs": [
        {
          "internalType": "string",
          "name": "certid",
          "type": "string"
        },
        {
          "internalType": "string",
          "name": "deptname",
          "type": "string"
        },
        {
          "internalType": "string",
          "name": "stuid",
          "type": "string"
        },
        {
          "internalType": "string",
          "name": "poy",
          "type": "string"
        },
        {
          "internalType": "string",
          "name": "class",
          "type": "string"
        },
        {
          "internalType": "uint256",
          "name": "timeOfIssue",
          "type": "uint256"
        },
        {
          "internalType": "address",
          "name": "issuedby",
          "type": "address"
        },
        {
          "internalType": "enum finnal.ustatus",
          "name": "st",
          "type": "uint8"
        },
        {
          "internalType": "bytes32",
          "name": "tcerthash",
          "type": "bytes32"
        },
        {
          "internalType": "string",
          "name": "stuname",
          "type": "string"
        },
        {
          "internalType": "string",
          "name": "father",
          "type": "string"
        },
        {
          "internalType": "string",
          "name": "collegename",
          "type": "string"
        }
      ],
      "payable": false,
      "stateMutability": "view",
      "type": "function"
    },
    {
      "constant": true,
      "inputs": [
        {
          "internalType": "string",
          "name": "",
          "type": "string"
        }
      ],
      "name": "pccallcerts",
      "outputs": [
        {
          "internalType": "string",
          "name": "certid",
          "type": "string"
        },
        {
          "internalType": "string",
          "name": "deptname",
          "type": "string"
        },
        {
          "internalType": "string",
          "name": "stuid",
          "type": "string"
        },
        {
          "internalType": "string",
          "name": "poy",
          "type": "string"
        },
        {
          "internalType": "string",
          "name": "class",
          "type": "string"
        },
        {
          "internalType": "uint256",
          "name": "timeOfIssue",
          "type": "uint256"
        },
        {
          "internalType": "address",
          "name": "issuedby",
          "type": "address"
        },
        {
          "internalType": "enum finnal.ustatus",
          "name": "st",
          "type": "uint8"
        },
        {
          "internalType": "bytes32",
          "name": "tcerthash",
          "type": "bytes32"
        },
        {
          "internalType": "string",
          "name": "stuname",
          "type": "string"
        },
        {
          "internalType": "string",
          "name": "father",
          "type": "string"
        },
        {
          "internalType": "string",
          "name": "collegename",
          "type": "string"
        }
      ],
      "payable": false,
      "stateMutability": "view",
      "type": "function"
    },
    {
      "constant": true,
      "inputs": [
        {
          "internalType": "string",
          "name": "",
          "type": "string"
        }
      ],
      "name": "mapstu",
      "outputs": [
        {
          "internalType": "address",
          "name": "issueradd",
          "type": "address"
        },
        {
          "internalType": "string",
          "name": "upassword",
          "type": "string"
        },
        {
          "internalType": "enum finnal.ustatus",
          "name": "u",
          "type": "uint8"
        },
        {
          "internalType": "string",
          "name": "uniname",
          "type": "string"
        },
        {
          "internalType": "string",
          "name": "email",
          "type": "string"
        },
        {
          "internalType": "string",
          "name": "username",
          "type": "string"
        },
        {
          "internalType": "uint256",
          "name": "cmm",
          "type": "uint256"
        },
        {
          "internalType": "uint256",
          "name": "pc",
          "type": "uint256"
        },
        {
          "internalType": "uint256",
          "name": "od",
          "type": "uint256"
        },
        {
          "internalType": "string",
          "name": "imagehash",
          "type": "string"
        }
      ],
      "payable": false,
      "stateMutability": "view",
      "type": "function"
    },
    {
      "constant": true,
      "inputs": [
        {
          "internalType": "string",
          "name": "",
          "type": "string"
        }
      ],
      "name": "cmmcertbystudentid",
      "outputs": [
        {
          "internalType": "string",
          "name": "certid",
          "type": "string"
        },
        {
          "internalType": "string",
          "name": "deptname",
          "type": "string"
        },
        {
          "internalType": "string",
          "name": "stuid",
          "type": "string"
        },
        {
          "internalType": "string",
          "name": "poy",
          "type": "string"
        },
        {
          "internalType": "string",
          "name": "class",
          "type": "string"
        },
        {
          "internalType": "uint256",
          "name": "timeOfIssue",
          "type": "uint256"
        },
        {
          "internalType": "address",
          "name": "issuedby",
          "type": "address"
        },
        {
          "internalType": "enum finnal.ustatus",
          "name": "st",
          "type": "uint8"
        },
        {
          "internalType": "bytes32",
          "name": "tcerthash",
          "type": "bytes32"
        },
        {
          "internalType": "string",
          "name": "stuname",
          "type": "string"
        },
        {
          "internalType": "string",
          "name": "father",
          "type": "string"
        },
        {
          "internalType": "string",
          "name": "collegename",
          "type": "string"
        }
      ],
      "payable": false,
      "stateMutability": "view",
      "type": "function"
    },
    {
      "constant": true,
      "inputs": [],
      "name": "cmmcount",
      "outputs": [
        {
          "internalType": "uint256",
          "name": "",
          "type": "uint256"
        }
      ],
      "payable": false,
      "stateMutability": "view",
      "type": "function"
    },
    {
      "constant": true,
      "inputs": [],
      "name": "odcount",
      "outputs": [
        {
          "internalType": "uint256",
          "name": "",
          "type": "uint256"
        }
      ],
      "payable": false,
      "stateMutability": "view",
      "type": "function"
    },
    {
      "constant": true,
      "inputs": [],
      "name": "admin",
      "outputs": [
        {
          "internalType": "address",
          "name": "",
          "type": "address"
        }
      ],
      "payable": false,
      "stateMutability": "view",
      "type": "function"
    },
    {
      "constant": true,
      "inputs": [
        {
          "internalType": "bytes32",
          "name": "",
          "type": "bytes32"
        }
      ],
      "name": "cmmcertbyhash",
      "outputs": [
        {
          "internalType": "string",
          "name": "certid",
          "type": "string"
        },
        {
          "internalType": "string",
          "name": "deptname",
          "type": "string"
        },
        {
          "internalType": "string",
          "name": "stuid",
          "type": "string"
        },
        {
          "internalType": "string",
          "name": "poy",
          "type": "string"
        },
        {
          "internalType": "string",
          "name": "class",
          "type": "string"
        },
        {
          "internalType": "uint256",
          "name": "timeOfIssue",
          "type": "uint256"
        },
        {
          "internalType": "address",
          "name": "issuedby",
          "type": "address"
        },
        {
          "internalType": "enum finnal.ustatus",
          "name": "st",
          "type": "uint8"
        },
        {
          "internalType": "bytes32",
          "name": "tcerthash",
          "type": "bytes32"
        },
        {
          "internalType": "string",
          "name": "stuname",
          "type": "string"
        },
        {
          "internalType": "string",
          "name": "father",
          "type": "string"
        },
        {
          "internalType": "string",
          "name": "collegename",
          "type": "string"
        }
      ],
      "payable": false,
      "stateMutability": "view",
      "type": "function"
    },
    {
      "constant": true,
      "inputs": [
        {
          "internalType": "string",
          "name": "",
          "type": "string"
        }
      ],
      "name": "alls",
      "outputs": [
        {
          "internalType": "string",
          "name": "stuid",
          "type": "string"
        },
        {
          "internalType": "string",
          "name": "stuname",
          "type": "string"
        },
        {
          "internalType": "string",
          "name": "father",
          "type": "string"
        },
        {
          "internalType": "string",
          "name": "collegename",
          "type": "string"
        },
        {
          "internalType": "enum finnal.ustatus",
          "name": "st",
          "type": "uint8"
        },
        {
          "internalType": "string",
          "name": "uniname",
          "type": "string"
        },
        {
          "internalType": "string",
          "name": "stuemail",
          "type": "string"
        },
        {
          "internalType": "string",
          "name": "deptname",
          "type": "string"
        },
        {
          "internalType": "string",
          "name": "pass",
          "type": "string"
        },
        {
          "internalType": "uint256",
          "name": "stphne",
          "type": "uint256"
        },
        {
          "internalType": "string",
          "name": "imagehash",
          "type": "string"
        }
      ],
      "payable": false,
      "stateMutability": "view",
      "type": "function"
    },
    {
      "inputs": [
        {
          "internalType": "string",
          "name": "_username",
          "type": "string"
        },
        {
          "internalType": "string",
          "name": "_password",
          "type": "string"
        }
      ],
      "payable": false,
      "stateMutability": "nonpayable",
      "type": "constructor"
    },
    {
      "anonymous": false,
      "inputs": [
        {
          "indexed": true,
          "internalType": "address",
          "name": "addedBy",
          "type": "address"
        },
        {
          "indexed": false,
          "internalType": "uint256",
          "name": "timestamp",
          "type": "uint256"
        },
        {
          "indexed": false,
          "internalType": "address",
          "name": "_issueradd",
          "type": "address"
        },
        {
          "indexed": false,
          "internalType": "string",
          "name": "_uniname",
          "type": "string"
        },
        {
          "indexed": false,
          "internalType": "string",
          "name": "_email",
          "type": "string"
        },
        {
          "indexed": false,
          "internalType": "string",
          "name": "_username",
          "type": "string"
        },
        {
          "indexed": false,
          "internalType": "string",
          "name": "_imagehash",
          "type": "string"
        }
      ],
      "name": "University",
      "type": "event"
    },
    {
      "anonymous": false,
      "inputs": [
        {
          "indexed": false,
          "internalType": "uint256",
          "name": "_blno",
          "type": "uint256"
        },
        {
          "indexed": false,
          "internalType": "address",
          "name": "fromaccount",
          "type": "address"
        }
      ],
      "name": "certyblock",
      "type": "event"
    },
    {
      "anonymous": false,
      "inputs": [
        {
          "indexed": true,
          "internalType": "address",
          "name": "addedby",
          "type": "address"
        },
        {
          "indexed": false,
          "internalType": "uint256",
          "name": "timestamp",
          "type": "uint256"
        },
        {
          "indexed": false,
          "internalType": "string",
          "name": "studentid",
          "type": "string"
        },
        {
          "indexed": false,
          "internalType": "string",
          "name": "studentname",
          "type": "string"
        },
        {
          "indexed": false,
          "internalType": "string",
          "name": "fathername",
          "type": "string"
        },
        {
          "indexed": false,
          "internalType": "string",
          "name": "collegename",
          "type": "string"
        },
        {
          "indexed": false,
          "internalType": "string",
          "name": "uniname",
          "type": "string"
        },
        {
          "indexed": false,
          "internalType": "string",
          "name": "studentemail",
          "type": "string"
        },
        {
          "indexed": false,
          "internalType": "string",
          "name": "deptname",
          "type": "string"
        },
        {
          "indexed": false,
          "internalType": "uint256",
          "name": "stphonenumber",
          "type": "uint256"
        },
        {
          "indexed": false,
          "internalType": "string",
          "name": "_imagehash",
          "type": "string"
        }
      ],
      "name": "studentadded",
      "type": "event"
    },
    {
      "anonymous": false,
      "inputs": [
        {
          "indexed": false,
          "internalType": "uint256",
          "name": "timestamp",
          "type": "uint256"
        },
        {
          "indexed": false,
          "internalType": "string",
          "name": "_certid",
          "type": "string"
        },
        {
          "indexed": false,
          "internalType": "string",
          "name": "_deptname",
          "type": "string"
        },
        {
          "indexed": false,
          "internalType": "string",
          "name": "_stuid",
          "type": "string"
        },
        {
          "indexed": false,
          "internalType": "string",
          "name": "_poy",
          "type": "string"
        },
        {
          "indexed": false,
          "internalType": "string",
          "name": "_stname",
          "type": "string"
        },
        {
          "indexed": false,
          "internalType": "address",
          "name": "issuedby",
          "type": "address"
        },
        {
          "indexed": false,
          "internalType": "string",
          "name": "collegename",
          "type": "string"
        }
      ],
      "name": "oddetails",
      "type": "event"
    },
    {
      "anonymous": false,
      "inputs": [
        {
          "indexed": false,
          "internalType": "uint256",
          "name": "timestamp",
          "type": "uint256"
        },
        {
          "indexed": false,
          "internalType": "string",
          "name": "_certid",
          "type": "string"
        },
        {
          "indexed": false,
          "internalType": "string",
          "name": "_deptname",
          "type": "string"
        },
        {
          "indexed": false,
          "internalType": "string",
          "name": "_stuid",
          "type": "string"
        },
        {
          "indexed": false,
          "internalType": "string",
          "name": "_poy",
          "type": "string"
        },
        {
          "indexed": false,
          "internalType": "string",
          "name": "_stname",
          "type": "string"
        },
        {
          "indexed": false,
          "internalType": "address",
          "name": "issuedby",
          "type": "address"
        },
        {
          "indexed": false,
          "internalType": "string",
          "name": "collegename",
          "type": "string"
        }
      ],
      "name": "cmmdetails",
      "type": "event"
    },
    {
      "anonymous": false,
      "inputs": [
        {
          "indexed": false,
          "internalType": "uint256",
          "name": "timestamp",
          "type": "uint256"
        },
        {
          "indexed": false,
          "internalType": "string",
          "name": "_certid",
          "type": "string"
        },
        {
          "indexed": false,
          "internalType": "string",
          "name": "_deptname",
          "type": "string"
        },
        {
          "indexed": false,
          "internalType": "string",
          "name": "_stuid",
          "type": "string"
        },
        {
          "indexed": false,
          "internalType": "string",
          "name": "_poy",
          "type": "string"
        },
        {
          "indexed": false,
          "internalType": "string",
          "name": "_stname",
          "type": "string"
        },
        {
          "indexed": false,
          "internalType": "address",
          "name": "issuedby",
          "type": "address"
        },
        {
          "indexed": false,
          "internalType": "string",
          "name": "collegename",
          "type": "string"
        }
      ],
      "name": "pccdetails",
      "type": "event"
    },
    {
      "anonymous": false,
      "inputs": [
        {
          "indexed": false,
          "internalType": "string",
          "name": "empid",
          "type": "string"
        },
        {
          "indexed": false,
          "internalType": "string",
          "name": "vername",
          "type": "string"
        },
        {
          "indexed": false,
          "internalType": "string",
          "name": "uniname",
          "type": "string"
        },
        {
          "indexed": false,
          "internalType": "uint256",
          "name": "time",
          "type": "uint256"
        },
        {
          "indexed": false,
          "internalType": "string",
          "name": "companyname",
          "type": "string"
        }
      ],
      "name": "Employer",
      "type": "event"
    },
    {
      "constant": false,
      "inputs": [
        {
          "internalType": "string",
          "name": "_username",
          "type": "string"
        },
        {
          "internalType": "string",
          "name": "_upassword",
          "type": "string"
        },
        {
          "internalType": "string",
          "name": "_newpassword",
          "type": "string"
        }
      ],
      "name": "updatepassword",
      "outputs": [],
      "payable": false,
      "stateMutability": "nonpayable",
      "type": "function"
    },
    {
      "constant": false,
      "inputs": [
        {
          "internalType": "address",
          "name": "_issueradd",
          "type": "address"
        },
        {
          "internalType": "string",
          "name": "_uniname",
          "type": "string"
        },
        {
          "internalType": "string",
          "name": "_email",
          "type": "string"
        },
        {
          "internalType": "string",
          "name": "_username",
          "type": "string"
        },
        {
          "internalType": "uint256",
          "name": "_cmm",
          "type": "uint256"
        },
        {
          "internalType": "uint256",
          "name": "_pc",
          "type": "uint256"
        },
        {
          "internalType": "uint256",
          "name": "_od",
          "type": "uint256"
        },
        {
          "internalType": "string",
          "name": "_imagehash",
          "type": "string"
        }
      ],
      "name": "regissuer",
      "outputs": [
        {
          "internalType": "bool",
          "name": "",
          "type": "bool"
        }
      ],
      "payable": false,
      "stateMutability": "nonpayable",
      "type": "function"
    },
    {
      "constant": true,
      "inputs": [
        {
          "internalType": "string",
          "name": "_username",
          "type": "string"
        },
        {
          "internalType": "string",
          "name": "_password",
          "type": "string"
        }
      ],
      "name": "login",
      "outputs": [
        {
          "internalType": "uint256",
          "name": "",
          "type": "uint256"
        }
      ],
      "payable": false,
      "stateMutability": "view",
      "type": "function"
    },
    {
      "constant": false,
      "inputs": [
        {
          "internalType": "string",
          "name": "_stuid",
          "type": "string"
        },
        {
          "internalType": "string",
          "name": "_stuname",
          "type": "string"
        },
        {
          "internalType": "string",
          "name": "_father",
          "type": "string"
        },
        {
          "internalType": "string",
          "name": "_collegename",
          "type": "string"
        },
        {
          "internalType": "string",
          "name": "_uniname",
          "type": "string"
        },
        {
          "internalType": "string",
          "name": "_stuemail",
          "type": "string"
        },
        {
          "internalType": "string",
          "name": "_deptname",
          "type": "string"
        },
        {
          "internalType": "uint256",
          "name": "_phnum",
          "type": "uint256"
        },
        {
          "internalType": "string",
          "name": "_imagehash",
          "type": "string"
        }
      ],
      "name": "addstudent",
      "outputs": [],
      "payable": false,
      "stateMutability": "nonpayable",
      "type": "function"
    },
    {
      "constant": false,
      "inputs": [
        {
          "internalType": "string",
          "name": "_certid",
          "type": "string"
        },
        {
          "internalType": "string",
          "name": "_stuid",
          "type": "string"
        },
        {
          "internalType": "string",
          "name": "_poy",
          "type": "string"
        },
        {
          "internalType": "string",
          "name": "_class",
          "type": "string"
        }
      ],
      "name": "addcmmcertificate",
      "outputs": [],
      "payable": false,
      "stateMutability": "nonpayable",
      "type": "function"
    },
    {
      "constant": false,
      "inputs": [
        {
          "internalType": "string",
          "name": "_certid",
          "type": "string"
        },
        {
          "internalType": "string",
          "name": "_stuid",
          "type": "string"
        },
        {
          "internalType": "string",
          "name": "_poy",
          "type": "string"
        },
        {
          "internalType": "string",
          "name": "_class",
          "type": "string"
        }
      ],
      "name": "addodcertificate",
      "outputs": [],
      "payable": false,
      "stateMutability": "nonpayable",
      "type": "function"
    },
    {
      "constant": false,
      "inputs": [
        {
          "internalType": "string",
          "name": "_certid",
          "type": "string"
        },
        {
          "internalType": "string",
          "name": "_stuid",
          "type": "string"
        },
        {
          "internalType": "string",
          "name": "_poy",
          "type": "string"
        },
        {
          "internalType": "string",
          "name": "_class",
          "type": "string"
        }
      ],
      "name": "addpcccertificate",
      "outputs": [],
      "payable": false,
      "stateMutability": "nonpayable",
      "type": "function"
    },
    {
      "constant": true,
      "inputs": [
        {
          "internalType": "bytes32",
          "name": "_tcerthash",
          "type": "bytes32"
        }
      ],
      "name": "verify",
      "outputs": [
        {
          "internalType": "enum finnal.ustatus",
          "name": "",
          "type": "uint8"
        }
      ],
      "payable": false,
      "stateMutability": "view",
      "type": "function"
    },
    {
      "constant": false,
      "inputs": [
        {
          "internalType": "string",
          "name": "_empid",
          "type": "string"
        },
        {
          "internalType": "string",
          "name": "_vername",
          "type": "string"
        },
        {
          "internalType": "string",
          "name": "_uniname",
          "type": "string"
        },
        {
          "internalType": "uint256",
          "name": "_time",
          "type": "uint256"
        },
        {
          "internalType": "string",
          "name": "_companyname",
          "type": "string"
        },
        {
          "internalType": "string",
          "name": "_image",
          "type": "string"
        }
      ],
      "name": "addver",
      "outputs": [],
      "payable": false,
      "stateMutability": "nonpayable",
      "type": "function"
    },
    {
      "constant": true,
      "inputs": [
        {
          "internalType": "string",
          "name": "_vername",
          "type": "string"
        }
      ],
      "name": "getverlist",
      "outputs": [
        {
          "internalType": "string",
          "name": "",
          "type": "string"
        },
        {
          "internalType": "string",
          "name": "",
          "type": "string"
        },
        {
          "internalType": "string",
          "name": "",
          "type": "string"
        },
        {
          "internalType": "uint256",
          "name": "",
          "type": "uint256"
        },
        {
          "internalType": "string",
          "name": "",
          "type": "string"
        },
        {
          "internalType": "string",
          "name": "",
          "type": "string"
        }
      ],
      "payable": false,
      "stateMutability": "view",
      "type": "function"
    }
  ],
  "bytecode": "0x60806040523480156200001157600080fd5b50604051620057713803806200577183398101604081905262000034916200017b565b600080546001600160a01b0319163317905581516200005b9060029060208501906200007a565b508051620000719060019060208401906200007a565b5050506200026b565b828054600181600116156101000203166002900490600052602060002090601f016020900481019282601f10620000bd57805160ff1916838001178555620000ed565b82800160010185558215620000ed579182015b82811115620000ed578251825591602001919060010190620000d0565b50620000fb929150620000ff565b5090565b6200011c91905b80821115620000fb576000815560010162000106565b90565b600082601f8301126200013157600080fd5b815162000148620001428262000210565b620001e9565b915080825260208301602083018583830111156200016557600080fd5b6200017283828462000238565b50505092915050565b600080604083850312156200018f57600080fd5b82516001600160401b03811115620001a657600080fd5b620001b4858286016200011f565b92505060208301516001600160401b03811115620001d157600080fd5b620001df858286016200011f565b9150509250929050565b6040518181016001600160401b03811182821017156200020857600080fd5b604052919050565b60006001600160401b038211156200022757600080fd5b506020601f91909101601f19160190565b60005b83811015620002555781810151838201526020016200023b565b8381111562000265576000848401525b50505050565b6154f6806200027b6000396000f3fe608060405234801561001057600080fd5b50600436106101c45760003560e01c80639b7da557116100f9578063ed841ba111610097578063f851a44011610071578063f851a440146103da578063f92227a1146103ef578063fbd9f8fb14610402578063ff382bb614610427576101c4565b8063ed841ba1146103b7578063f5248416146103ca578063f5355221146103d2576101c4565b8063d3249afe116100d3578063d3249afe14610348578063d360548d1461035b578063e5a1182b1461037b578063ed56dbc51461038e576101c4565b80639b7da5571461030f5780639d49fea814610322578063b324a01614610335576101c4565b806358467dbc1161016657806375e366161161014057806375e36616146102c15780638abe09f2146102e1578063928aae13146102e9578063963f6ee5146102fc576101c4565b806358467dbc146102885780636406746a1461029b578063662ea785146102ae576101c4565b80633c47c1c5116101a25780633c47c1c5146102045780634e6068a2146102225780634f291c3b1461024d578063517f70dc14610273576101c4565b8063123c4a5f146101c95780633662f446146101de57806338b8cf59146101f1575b600080fd5b6101dc6101d736600461499e565b610451565b005b6101dc6101ec366004614767565b6105f4565b6101dc6101ff366004614767565b610e9f565b61020c611665565b6040516102199190614e52565b60405180910390f35b6102356102303660046145f7565b6116f2565b6040516102199c9b9a99989796959493929190615022565b61026061025b36600461463b565b611bbc565b604051610219979695949392919061510a565b61027b611f50565b604051610219919061519c565b61027b61029636600461466f565b611f56565b6102356102a936600461463b565b612013565b6101dc6102bc366004614767565b61208b565b6102d46102cf3660046145f7565b612851565b6040516102199190614e44565b61027b6129a2565b6102356102f736600461463b565b6129a8565b6101dc61030a366004614823565b612a20565b61023561031d36600461463b565b612c7c565b6102356103303660046145f7565b612cf4565b6101dc6103433660046146d6565b612d60565b61023561035636600461463b565b613221565b61036e6103693660046144eb565b613299565b6040516102199190614e36565b61023561038936600461463b565b61349d565b6103a161039c36600461463b565b613515565b6040516102199a99989796959493929190614d7f565b6102356103c536600461463b565b613835565b61027b6138ad565b61027b6138b3565b6103e26138b9565b6040516102199190614d71565b6102356103fd3660046145f7565b6138c8565b61041561041036600461463b565b613934565b60405161021996959493929190614ec8565b61043a61043536600461463b565b613d23565b6040516102199b9a99989796959493929190614f42565b610459614272565b6040518060e00160405280888152602001878152602001878152602001868152602001856224ea000242018152602001848152602001838152509050806015886040516104a69190614c9c565b908152602001604051809103902060008201518160000190805190602001906104d09291906142af565b5060208281015180516104e992600185019201906142af565b50604082015180516105059160028401916020909101906142af565b50606082015180516105219160038401916020909101906142af565b506080820151600482015560a082015180516105479160058401916020909101906142af565b5060c082015180516105639160068401916020909101906142af565b509050507feb2100041fc7dd3a6e473c39d95a9dbef7291fb79d8b78c94295a4cf5db60b9987878760158a60405161059b9190614c9c565b908152604051908190036020018120600401546105bc949392918990614e63565b60405180910390a160008051602061549483398151915243336040516105e39291906151aa565b60405180910390a150505050505050565b60006002858484433360078a60405161060d9190614c9c565b908152602001604051809103902060010160078b60405161062e9190614c9c565b90815260200160405180910390206002016040516020016106559796959493929190614cfc565b60408051601f198184030181529082905261066f91614c9c565b602060405180830381855afa15801561068c573d6000803e3d6000fd5b5050506040513d601f19601f820116820180604052506106af919081019061461d565b90506106b961432d565b6040518061018001604052808781526020016007876040516106db9190614c9c565b9081526040805160209281900383018120600701805460026001821615610100026000190190911604601f8101859004850283018501909352828252909290919083018282801561076d5780601f106107425761010080835404028352916020019161076d565b820191906000526020600020905b81548152906001019060200180831161075057829003601f168201915b50505091835250506020810187905260408101869052606081018590524260808201523360a082015260c001600481526020018381526020016007876040516107b69190614c9c565b90815260408051602092819003830181206001908101805460029281161561010002600019011691909104601f8101859004850283018501909352828252909290919083018282801561084a5780601f1061081f5761010080835404028352916020019161084a565b820191906000526020600020905b81548152906001019060200180831161082d57829003601f168201915b505050505081526020016007876040516108649190614c9c565b90815260408051918290036020908101832060029081018054601f6000196101006001841615020190911692909204918201839004830285018301909352808452908301828280156108f75780601f106108cc576101008083540402835291602001916108f7565b820191906000526020600020905b8154815290600101906020018083116108da57829003601f168201915b505050505081526020016007876040516109119190614c9c565b9081526040805160209281900383018120600301805460026001821615610100026000190190911604601f810185900485028301850190935282825290929091908301828280156109a35780601f10610978576101008083540402835291602001916109a3565b820191906000526020600020905b81548152906001019060200180831161098657829003601f168201915b5050505050815250905080600c876040516109be9190614c9c565b908152602001604051809103902060008201518160000190805190602001906109e89291906142af565b506020828101518051610a0192600185019201906142af565b5060408201518051610a1d9160028401916020909101906142af565b5060608201518051610a399160038401916020909101906142af565b5060808201518051610a559160048401916020909101906142af565b5060a0820151600582015560c08201516006820180546001600160a01b0319166001600160a01b039092169190911780825560e0840151919060ff60a01b1916600160a01b836010811115610aa657fe5b021790555061010082015160078201556101208201518051610ad29160088401916020909101906142af565b506101408201518051610aef9160098401916020909101906142af565b506101608201518051610b0c91600a8401916020909101906142af565b5050506000828152600d60209081526040909120825180518493610b349284929101906142af565b506020828101518051610b4d92600185019201906142af565b5060408201518051610b699160028401916020909101906142af565b5060608201518051610b859160038401916020909101906142af565b5060808201518051610ba19160048401916020909101906142af565b5060a0820151600582015560c08201516006820180546001600160a01b0319166001600160a01b039092169190911780825560e0840151919060ff60a01b1916600160a01b836010811115610bf257fe5b021790555061010082015160078201556101208201518051610c1e9160088401916020909101906142af565b506101408201518051610c3b9160098401916020909101906142af565b506101608201518051610c5891600a8401916020909101906142af565b5090505080600986604051610c6d9190614c9c565b90815260200160405180910390206000820151816000019080519060200190610c979291906142af565b506020828101518051610cb092600185019201906142af565b5060408201518051610ccc9160028401916020909101906142af565b5060608201518051610ce89160038401916020909101906142af565b5060808201518051610d049160048401916020909101906142af565b5060a0820151600582015560c08201516006820180546001600160a01b0319166001600160a01b039092169190911780825560e0840151919060ff60a01b1916600160a01b836010811115610d5557fe5b021790555061010082015160078201556101208201518051610d819160088401916020909101906142af565b506101408201518051610d9e9160098401916020909101906142af565b506101608201518051610dbb91600a8401916020909101906142af565b5050600880546001019055506040517f9c678aea8decf50c0d555dcce05666e365456749631fcaee9381361ddb3b989a9042908890600790610dfe908a90614c9c565b9081526020016040518091039020600701888860078b604051610e219190614c9c565b90815260200160405180910390206001013360078d604051610e439190614c9c565b9081526020016040518091039020600301604051610e689897969594939291906152c3565b60405180910390a16000805160206154948339815191524333604051610e8f9291906151aa565b60405180910390a1505050505050565b600060028584844333604051602001610ebc959493929190614caf565b60408051601f1981840301815290829052610ed691614c9c565b602060405180830381855afa158015610ef3573d6000803e3d6000fd5b5050506040513d601f19601f82011682018060405250610f16919081019061461d565b9050610f2061432d565b604051806101800160405280878152602001600787604051610f429190614c9c565b9081526040805160209281900383018120600701805460026001821615610100026000190190911604601f81018590048502830185019093528282529092909190830182828015610fd45780601f10610fa957610100808354040283529160200191610fd4565b820191906000526020600020905b815481529060010190602001808311610fb757829003601f168201915b50505091835250506020810187905260408101869052606081018590524260808201523360a082015260c0016002815260200183815260200160078760405161101d9190614c9c565b90815260408051602092819003830181206001908101805460029281161561010002600019011691909104601f810185900485028301850190935282825290929091908301828280156110b15780601f10611086576101008083540402835291602001916110b1565b820191906000526020600020905b81548152906001019060200180831161109457829003601f168201915b505050505081526020016007876040516110cb9190614c9c565b90815260408051918290036020908101832060029081018054601f60001961010060018416150201909116929092049182018390048302850183019093528084529083018282801561115e5780601f106111335761010080835404028352916020019161115e565b820191906000526020600020905b81548152906001019060200180831161114157829003601f168201915b505050505081526020016007876040516111789190614c9c565b9081526040805160209281900383018120600301805460026001821615610100026000190190911604601f8101859004850283018501909352828252909290919083018282801561120a5780601f106111df5761010080835404028352916020019161120a565b820191906000526020600020905b8154815290600101906020018083116111ed57829003601f168201915b5050505050815250905080600e876040516112259190614c9c565b9081526020016040518091039020600082015181600001908051906020019061124f9291906142af565b50602082810151805161126892600185019201906142af565b50604082015180516112849160028401916020909101906142af565b50606082015180516112a09160038401916020909101906142af565b50608082015180516112bc9160048401916020909101906142af565b5060a0820151600582015560c08201516006820180546001600160a01b0319166001600160a01b039092169190911780825560e0840151919060ff60a01b1916600160a01b83601081111561130d57fe5b0217905550610100820151600782015561012082015180516113399160088401916020909101906142af565b5061014082015180516113569160098401916020909101906142af565b50610160820151805161137391600a8401916020909101906142af565b5050506000828152600f6020908152604090912082518051849361139b9284929101906142af565b5060208281015180516113b492600185019201906142af565b50604082015180516113d09160028401916020909101906142af565b50606082015180516113ec9160038401916020909101906142af565b50608082015180516114089160048401916020909101906142af565b5060a0820151600582015560c08201516006820180546001600160a01b0319166001600160a01b039092169190911780825560e0840151919060ff60a01b1916600160a01b83601081111561145957fe5b0217905550610100820151600782015561012082015180516114859160088401916020909101906142af565b5061014082015180516114a29160098401916020909101906142af565b5061016082015180516114bf91600a8401916020909101906142af565b50905050806011866040516114d49190614c9c565b908152602001604051809103902060008201518160000190805190602001906114fe9291906142af565b50602082810151805161151792600185019201906142af565b50604082015180516115339160028401916020909101906142af565b506060820151805161154f9160038401916020909101906142af565b506080820151805161156b9160048401916020909101906142af565b5060a0820151600582015560c08201516006820180546001600160a01b0319166001600160a01b039092169190911780825560e0840151919060ff60a01b1916600160a01b8360108111156115bc57fe5b0217905550610100820151600782015561012082015180516115e89160088401916020909101906142af565b5061014082015180516116059160098401916020909101906142af565b50610160820151805161162291600a8401916020909101906142af565b5050601280546001019055506040517f20134765a7c8f441a71f1e609d2df0fbb6de68492a6704e9dc32318833c20ded9042908890600790610dfe908a90614c9c565b60018054604080516020600284861615610100026000190190941693909304601f810184900484028201840190925281815292918301828280156116ea5780601f106116bf576101008083540402835291602001916116ea565b820191906000526020600020905b8154815290600101906020018083116116cd57829003601f168201915b505050505081565b600b6020908152600091825260409182902080548351601f600260001961010060018616150201909316929092049182018490048402810184019094528084529092918391908301828280156117895780601f1061175e57610100808354040283529160200191611789565b820191906000526020600020905b81548152906001019060200180831161176c57829003601f168201915b505050505090806001018054600181600116156101000203166002900480601f0160208091040260200160405190810160405280929190818152602001828054600181600116156101000203166002900480156118275780601f106117fc57610100808354040283529160200191611827565b820191906000526020600020905b81548152906001019060200180831161180a57829003601f168201915b50505060028085018054604080516020601f60001961010060018716150201909416959095049283018590048502810185019091528181529596959450909250908301828280156118b95780601f1061188e576101008083540402835291602001916118b9565b820191906000526020600020905b81548152906001019060200180831161189c57829003601f168201915b5050505060038301805460408051602060026001851615610100026000190190941693909304601f81018490048402820184019092528181529495949350908301828280156119495780601f1061191e57610100808354040283529160200191611949565b820191906000526020600020905b81548152906001019060200180831161192c57829003601f168201915b5050505060048301805460408051602060026001851615610100026000190190941693909304601f81018490048402820184019092528181529495949350908301828280156119d95780601f106119ae576101008083540402835291602001916119d9565b820191906000526020600020905b8154815290600101906020018083116119bc57829003601f168201915b5050505060058301546006840154600785015460088601805460408051602060026101006001861615026000190190941693909304601f8101849004840282018401909252818152979895976001600160a01b0386169750600160a01b90950460ff169593949291830182828015611a925780601f10611a6757610100808354040283529160200191611a92565b820191906000526020600020905b815481529060010190602001808311611a7557829003601f168201915b5050505060098301805460408051602060026001851615610100026000190190941693909304601f8101849004840282018401909252818152949594935090830182828015611b225780601f10611af757610100808354040283529160200191611b22565b820191906000526020600020905b815481529060010190602001808311611b0557829003601f168201915b50505050600a8301805460408051602060026001851615610100026000190190941693909304601f8101849004840282018401909252818152949594935090830182828015611bb25780601f10611b8757610100808354040283529160200191611bb2565b820191906000526020600020905b815481529060010190602001808311611b9557829003601f168201915b505050505090508c565b805160208183018101805160158252928201938201939093209190925280546040805160026001841615610100026000190190931692909204601f8101859004850283018501909152808252919290918391830182828015611c5f5780601f10611c3457610100808354040283529160200191611c5f565b820191906000526020600020905b815481529060010190602001808311611c4257829003601f168201915b505050505090806001018054600181600116156101000203166002900480601f016020809104026020016040519081016040528092919081815260200182805460018160011615610100020316600290048015611cfd5780601f10611cd257610100808354040283529160200191611cfd565b820191906000526020600020905b815481529060010190602001808311611ce057829003601f168201915b50505060028085018054604080516020601f6000196101006001871615020190941695909504928301859004850281018501909152818152959695945090925090830182828015611d8f5780601f10611d6457610100808354040283529160200191611d8f565b820191906000526020600020905b815481529060010190602001808311611d7257829003601f168201915b5050505060038301805460408051602060026001851615610100026000190190941693909304601f8101849004840282018401909252818152949594935090830182828015611e1f5780601f10611df457610100808354040283529160200191611e1f565b820191906000526020600020905b815481529060010190602001808311611e0257829003601f168201915b50505050600483015460058401805460408051602060026001851615610100026000190190941693909304601f81018490048402820184019092528181529596939593945090830182828015611eb65780601f10611e8b57610100808354040283529160200191611eb6565b820191906000526020600020905b815481529060010190602001808311611e9957829003601f168201915b5050505060068301805460408051602060026001851615610100026000190190941693909304601f8101849004840282018401909252818152949594935090830182828015611f465780601f10611f1b57610100808354040283529160200191611f46565b820191906000526020600020905b815481529060010190602001808311611f2957829003601f168201915b5050505050905087565b60135481565b60006002604051602001611f6a9190614d65565b6040516020818303038152906040528051906020012083604051602001611f919190614c9c565b6040516020818303038152906040528051906020012014801561200057506001604051602001611fc19190614d65565b6040516020818303038152906040528051906020012082604051602001611fe89190614c9c565b60405160208183030381529060405280519060200120145b61200957600080fd5b5060015b92915050565b805160208183018101805160148252928201938201939093209190925280546040805160026001841615610100026000190190931692909204601f81018590048502830185019091528082529192909183918301828280156117895780601f1061175e57610100808354040283529160200191611789565b6000600285848443336040516020016120a8959493929190614caf565b60408051601f19818403018152908290526120c291614c9c565b602060405180830381855afa1580156120df573d6000803e3d6000fd5b5050506040513d601f19601f82011682018060405250612102919081019061461d565b905061210c61432d565b60405180610180016040528087815260200160078760405161212e9190614c9c565b9081526040805160209281900383018120600701805460026001821615610100026000190190911604601f810185900485028301850190935282825290929091908301828280156121c05780601f10612195576101008083540402835291602001916121c0565b820191906000526020600020905b8154815290600101906020018083116121a357829003601f168201915b50505091835250506020810187905260408101869052606081018590524260808201523360a082015260c001600381526020018381526020016007876040516122099190614c9c565b90815260408051602092819003830181206001908101805460029281161561010002600019011691909104601f8101859004850283018501909352828252909290919083018282801561229d5780601f106122725761010080835404028352916020019161229d565b820191906000526020600020905b81548152906001019060200180831161228057829003601f168201915b505050505081526020016007876040516122b79190614c9c565b90815260408051918290036020908101832060029081018054601f60001961010060018416150201909116929092049182018390048302850183019093528084529083018282801561234a5780601f1061231f5761010080835404028352916020019161234a565b820191906000526020600020905b81548152906001019060200180831161232d57829003601f168201915b505050505081526020016007876040516123649190614c9c565b9081526040805160209281900383018120600301805460026001821615610100026000190190911604601f810185900485028301850190935282825290929091908301828280156123f65780601f106123cb576101008083540402835291602001916123f6565b820191906000526020600020905b8154815290600101906020018083116123d957829003601f168201915b5050505050815250905080600a876040516124119190614c9c565b9081526020016040518091039020600082015181600001908051906020019061243b9291906142af565b50602082810151805161245492600185019201906142af565b50604082015180516124709160028401916020909101906142af565b506060820151805161248c9160038401916020909101906142af565b50608082015180516124a89160048401916020909101906142af565b5060a0820151600582015560c08201516006820180546001600160a01b0319166001600160a01b039092169190911780825560e0840151919060ff60a01b1916600160a01b8360108111156124f957fe5b0217905550610100820151600782015561012082015180516125259160088401916020909101906142af565b5061014082015180516125429160098401916020909101906142af565b50610160820151805161255f91600a8401916020909101906142af565b5050506000828152600b602090815260409091208251805184936125879284929101906142af565b5060208281015180516125a092600185019201906142af565b50604082015180516125bc9160028401916020909101906142af565b50606082015180516125d89160038401916020909101906142af565b50608082015180516125f49160048401916020909101906142af565b5060a0820151600582015560c08201516006820180546001600160a01b0319166001600160a01b039092169190911780825560e0840151919060ff60a01b1916600160a01b83601081111561264557fe5b0217905550610100820151600782015561012082015180516126719160088401916020909101906142af565b50610140820151805161268e9160098401916020909101906142af565b5061016082015180516126ab91600a8401916020909101906142af565b50905050806014866040516126c09190614c9c565b908152602001604051809103902060008201518160000190805190602001906126ea9291906142af565b50602082810151805161270392600185019201906142af565b506040820151805161271f9160028401916020909101906142af565b506060820151805161273b9160038401916020909101906142af565b50608082015180516127579160048401916020909101906142af565b5060a0820151600582015560c08201516006820180546001600160a01b0319166001600160a01b039092169190911780825560e0840151919060ff60a01b1916600160a01b8360108111156127a857fe5b0217905550610100820151600782015561012082015180516127d49160088401916020909101906142af565b5061014082015180516127f19160098401916020909101906142af565b50610160820151805161280e91600a8401916020909101906142af565b5050601380546001019055506040517fd1633bcfdfc27a49b72603b5d3586a02bf5ece9d2bdd8d20ffd25c58b6b5b8169042908890600790610dfe908a90614c9c565b6000818152600f602090815260408083206007015490516128729201614c87565b60405160208183030381529060405280519060200120826040516020016128999190614c87565b6040516020818303038152906040528051906020012014156128bd5750600c61299d565b6000828152600d60209081526040918290206007015491516128e0929101614c87565b60405160208183030381529060405280519060200120826040516020016129079190614c87565b60405160208183030381529060405280519060200120141561292b5750600b61299d565b6000828152600b602090815260409182902060070154915161294e929101614c87565b60405160208183030381529060405280519060200120826040516020016129759190614c87565b6040516020818303038152906040528051906020012014156129995750600a61299d565b5060105b919050565b60165481565b8051602081830181018051600e8252928201938201939093209190925280546040805160026001841615610100026000190190931692909204601f81018590048502830185019091528082529192909183918301828280156117895780601f1061175e57610100808354040283529160200191611789565b612a286143a1565b6040518061016001604052808b81526020018a815260200189815260200188815260200160016010811115612a5957fe5b81526020018781526020018681526020018581526020018a81526020018481526020018381525090508060078b604051612a939190614c9c565b90815260200160405180910390206000820151816000019080519060200190612abd9291906142af565b506020828101518051612ad692600185019201906142af565b5060408201518051612af29160028401916020909101906142af565b5060608201518051612b0e9160038401916020909101906142af565b50608082015160048201805460ff19166001836010811115612b2c57fe5b021790555060a08201518051612b4c9160058401916020909101906142af565b5060c08201518051612b689160068401916020909101906142af565b5060e08201518051612b849160078401916020909101906142af565b506101008201518051612ba19160088401916020909101906142af565b5061012082015160098201556101408201518051612bc991600a8401916020909101906142af565b50905050600160068b604051612bdf9190614c9c565b908152604051908190036020018120805492151560ff199093169290921790915533907f7b615de54e696a4d73e8bd4e5893e4cc86d0ebf37571855b8b987d2c0323a6af90612c419042908e908e908e908e908e908e908e908e908e9061521a565b60405180910390a26000805160206154948339815191524333604051612c689291906151aa565b60405180910390a150505050505050505050565b805160208183018101805160118252928201938201939093209190925280546040805160026001841615610100026000190190931692909204601f81018590048502830185019091528082529192909183918301828280156117895780601f1061175e57610100808354040283529160200191611789565b600f6020908152600091825260409182902080548351601f600260001961010060018616150201909316929092049182018490048402810184019094528084529092918391908301828280156117895780601f1061175e57610100808354040283529160200191611789565b600383604051612d709190614c9c565b9081526020016040518091039020600501604051602001612d919190614d65565b6040516020818303038152906040528051906020012083604051602001612db89190614c9c565b604051602081830303815290604052805190602001201415612efe57600383604051612de49190614c9c565b9081526020016040518091039020600501604051602001612e059190614d65565b6040516020818303038152906040528051906020012083604051602001612e2c9190614c9c565b60405160208183030381529060405280519060200120148015612eba5750600383604051612e5a9190614c9c565b9081526020016040518091039020600101604051602001612e7b9190614d65565b6040516020818303038152906040528051906020012082604051602001612ea29190614c9c565b60405160208183030381529060405280519060200120145b612ec357600080fd5b80600384604051612ed49190614c9c565b90815260200160405180910390206001019080519060200190612ef89291906142af565b5061321c565b600783604051612f0e9190614c9c565b90815260405160209181900382018120612f2a92909101614d65565b6040516020818303038152906040528051906020012083604051602001612f519190614c9c565b60405160208183030381529060405280519060200120141561308c57600783604051612f7d9190614c9c565b90815260405160209181900382018120612f9992909101614d65565b6040516020818303038152906040528051906020012083604051602001612fc09190614c9c565b6040516020818303038152906040528051906020012014801561304e5750600783604051612fee9190614c9c565b908152602001604051809103902060080160405160200161300f9190614d65565b60405160208183030381529060405280519060200120826040516020016130369190614c9c565b60405160208183030381529060405280519060200120145b61305757600080fd5b806007846040516130689190614c9c565b90815260200160405180910390206008019080519060200190612ef89291906142af565b60158360405161309c9190614c9c565b908152604051602091819003820181206130b892909101614d65565b60405160208183030381529060405280519060200120836040516020016130df9190614c9c565b60405160208183030381529060405280519060200120141561321c5760158360405161310b9190614c9c565b9081526040516020918190038201812061312792909101614d65565b604051602081830303815290604052805190602001208360405160200161314e9190614c9c565b604051602081830303815290604052805190602001201480156131dc575060158360405161317c9190614c9c565b908152602001604051809103902060020160405160200161319d9190614d65565b60405160208183030381529060405280519060200120826040516020016131c49190614c9c565b60405160208183030381529060405280519060200120145b6131e557600080fd5b806015846040516131f69190614c9c565b9081526020016040518091039020600201908051906020019061321a9291906142af565b505b505050565b8051602081830181018051600c8252928201938201939093209190925280546040805160026001841615610100026000190190931692909204601f81018590048502830185019091528082529192909183918301828280156117895780601f1061175e57610100808354040283529160200191611789565b60006132a3614406565b5060408051610140810182526001600160a01b038b1680825260208083018a90526001838501819052606084018d9052608084018c905260a084018b905260c084018a905260e08401899052610100840188905261012084018790526000928352600490915290839020805460ff191690911790559051819060039061332a908a90614c9c565b90815260405160209181900382019020825181546001600160a01b0319166001600160a01b039091161781558282015180519192613370926001850192909101906142af565b50604082015160028201805460ff1916600183601081111561338e57fe5b0217905550606082015180516133ae9160038401916020909101906142af565b50608082015180516133ca9160048401916020909101906142af565b5060a082015180516133e69160058401916020909101906142af565b5060c0820151600682015560e08201516007820155610100820151600882015561012082015180516134229160098401916020909101906142af565b50506040513391507f31382feffb3a35ec8a7c2383cb31b8ae742917dbac1f7016ec7f7a2924266d58906134619042908e908e908e908e908b906151c5565b60405180910390a260008051602061549483398151915243336040516134889291906151aa565b60405180910390a15098975050505050505050565b8051602081830181018051600a8252928201938201939093209190925280546040805160026001841615610100026000190190931692909204601f81018590048502830185019091528082529192909183918301828280156117895780601f1061175e57610100808354040283529160200191611789565b805160208183018101805160038252928201938201939093209190925280546001808301805460408051600261010095841615959095026000190190921693909304601f81018790048702820187019093528281526001600160a01b03909316949091908301828280156135ca5780601f1061359f576101008083540402835291602001916135ca565b820191906000526020600020905b8154815290600101906020018083116135ad57829003601f168201915b505050506002838101546003850180546040805160206101006001851615026000190190931695909504601f8101839004830286018301909152808552959660ff909316959294509091908301828280156136665780601f1061363b57610100808354040283529160200191613666565b820191906000526020600020905b81548152906001019060200180831161364957829003601f168201915b5050505060048301805460408051602060026001851615610100026000190190941693909304601f81018490048402820184019092528181529495949350908301828280156136f65780601f106136cb576101008083540402835291602001916136f6565b820191906000526020600020905b8154815290600101906020018083116136d957829003601f168201915b5050505060058301805460408051602060026001851615610100026000190190941693909304601f81018490048402820184019092528181529495949350908301828280156137865780601f1061375b57610100808354040283529160200191613786565b820191906000526020600020905b81548152906001019060200180831161376957829003601f168201915b505050600684015460078501546008860154600987018054604080516020601f6002600019610100600188161502019095169490940493840181900481028201810190925282815298999598949750929550909183018282801561382b5780601f106138005761010080835404028352916020019161382b565b820191906000526020600020905b81548152906001019060200180831161380e57829003601f168201915b505050505090508a565b805160208183018101805160098252928201938201939093209190925280546040805160026001841615610100026000190190931692909204601f81018590048502830185019091528082529192909183918301828280156117895780601f1061175e57610100808354040283529160200191611789565b60085481565b60125481565b6000546001600160a01b031681565b600d6020908152600091825260409182902080548351601f600260001961010060018616150201909316929092049182018490048402810184019094528084529092918391908301828280156117895780601f1061175e57610100808354040283529160200191611789565b606080606060006060804260158860405161394f9190614c9c565b908152602001604051809103902060040154116139875760405162461bcd60e51b815260040161397e9061518c565b60405180910390fd5b6015876040516139979190614c9c565b90815260200160405180910390206001016015886040516139b89190614c9c565b90815260200160405180910390206002016015896040516139d99190614c9c565b908152602001604051809103902060030160158a6040516139fa9190614c9c565b90815260200160405180910390206004015460158b604051613a1c9190614c9c565b908152602001604051809103902060050160158c604051613a3d9190614c9c565b9081526040805160209281900383018120885460026001821615610100026000190190911604601f81018590048502830185019093528282526006019290918891830182828015613acf5780601f10613aa457610100808354040283529160200191613acf565b820191906000526020600020905b815481529060010190602001808311613ab257829003601f168201915b5050885460408051602060026001851615610100026000190190941693909304601f8101849004840282018401909252818152959b508a945092508401905082828015613b5d5780601f10613b3257610100808354040283529160200191613b5d565b820191906000526020600020905b815481529060010190602001808311613b4057829003601f168201915b5050875460408051602060026001851615610100026000190190941693909304601f8101849004840282018401909252818152959a5089945092508401905082828015613beb5780601f10613bc057610100808354040283529160200191613beb565b820191906000526020600020905b815481529060010190602001808311613bce57829003601f168201915b5050855460408051602060026001851615610100026000190190941693909304601f810184900484028201840190925281815295995087945092508401905082828015613c795780601f10613c4e57610100808354040283529160200191613c79565b820191906000526020600020905b815481529060010190602001808311613c5c57829003601f168201915b5050845460408051602060026001851615610100026000190190941693909304601f810184900484028201840190925281815295975086945092508401905082828015613d075780601f10613cdc57610100808354040283529160200191613d07565b820191906000526020600020905b815481529060010190602001808311613cea57829003601f168201915b5050505050905095509550955095509550955091939550919395565b805160208183018101805160078252928201938201939093209190925280546040805160026001841615610100026000190190931692909204601f8101859004850283018501909152808252919290918391830182828015613dc65780601f10613d9b57610100808354040283529160200191613dc6565b820191906000526020600020905b815481529060010190602001808311613da957829003601f168201915b505050505090806001018054600181600116156101000203166002900480601f016020809104026020016040519081016040528092919081815260200182805460018160011615610100020316600290048015613e645780601f10613e3957610100808354040283529160200191613e64565b820191906000526020600020905b815481529060010190602001808311613e4757829003601f168201915b50505060028085018054604080516020601f6000196101006001871615020190941695909504928301859004850281018501909152818152959695945090925090830182828015613ef65780601f10613ecb57610100808354040283529160200191613ef6565b820191906000526020600020905b815481529060010190602001808311613ed957829003601f168201915b5050505060038301805460408051602060026001851615610100026000190190941693909304601f8101849004840282018401909252818152949594935090830182828015613f865780601f10613f5b57610100808354040283529160200191613f86565b820191906000526020600020905b815481529060010190602001808311613f6957829003601f168201915b50505050600483015460058401805460408051602060026101006001861615026000190190941693909304601f8101849004840282018401909252818152959660ff90941695939450908301828280156140215780601f10613ff657610100808354040283529160200191614021565b820191906000526020600020905b81548152906001019060200180831161400457829003601f168201915b5050505060068301805460408051602060026001851615610100026000190190941693909304601f81018490048402820184019092528181529495949350908301828280156140b15780601f10614086576101008083540402835291602001916140b1565b820191906000526020600020905b81548152906001019060200180831161409457829003601f168201915b5050505060078301805460408051602060026001851615610100026000190190941693909304601f81018490048402820184019092528181529495949350908301828280156141415780601f1061411657610100808354040283529160200191614141565b820191906000526020600020905b81548152906001019060200180831161412457829003601f168201915b5050505060088301805460408051602060026001851615610100026000190190941693909304601f81018490048402820184019092528181529495949350908301828280156141d15780601f106141a6576101008083540402835291602001916141d1565b820191906000526020600020905b8154815290600101906020018083116141b457829003601f168201915b505050506009830154600a8401805460408051602060026001851615610100026000190190941693909304601f810184900484028201840190925281815295969395939450908301828280156142685780601f1061423d57610100808354040283529160200191614268565b820191906000526020600020905b81548152906001019060200180831161424b57829003601f168201915b505050505090508b565b6040518060e00160405280606081526020016060815260200160608152602001606081526020016000815260200160608152602001606081525090565b828054600181600116156101000203166002900490600052602060002090601f016020900481019282601f106142f057805160ff191683800117855561431d565b8280016001018555821561431d579182015b8281111561431d578251825591602001919060010190614302565b50614329929150614459565b5090565b60405180610180016040528060608152602001606081526020016060815260200160608152602001606081526020016000815260200160006001600160a01b031681526020016000601081111561438057fe5b81526000602082015260606040820181905280820181905260809091015290565b60405180610160016040528060608152602001606081526020016060815260200160608152602001600060108111156143d657fe5b81526020016060815260200160608152602001606081526020016060815260200160008152602001606081525090565b604080516101408101825260008082526060602083015290918201908152602001606081526020016060815260200160608152602001600081526020016000815260200160008152602001606081525090565b61447391905b80821115614329576000815560010161445f565b90565b803561200d81615476565b803561200d8161548a565b805161200d8161548a565b600082601f8301126144a857600080fd5b81356144bb6144b682615389565b615363565b915080825260208301602083018583830111156144d757600080fd5b6144e2838284615410565b50505092915050565b600080600080600080600080610100898b03121561450857600080fd5b60006145148b8b614476565b98505060208901356001600160401b0381111561453057600080fd5b61453c8b828c01614497565b97505060408901356001600160401b0381111561455857600080fd5b6145648b828c01614497565b96505060608901356001600160401b0381111561458057600080fd5b61458c8b828c01614497565b955050608061459d8b828c01614481565b94505060a06145ae8b828c01614481565b93505060c06145bf8b828c01614481565b92505060e08901356001600160401b038111156145db57600080fd5b6145e78b828c01614497565b9150509295985092959890939650565b60006020828403121561460957600080fd5b60006146158484614481565b949350505050565b60006020828403121561462f57600080fd5b6000614615848461448c565b60006020828403121561464d57600080fd5b81356001600160401b0381111561466357600080fd5b61461584828501614497565b6000806040838503121561468257600080fd5b82356001600160401b0381111561469857600080fd5b6146a485828601614497565b92505060208301356001600160401b038111156146c057600080fd5b6146cc85828601614497565b9150509250929050565b6000806000606084860312156146eb57600080fd5b83356001600160401b0381111561470157600080fd5b61470d86828701614497565b93505060208401356001600160401b0381111561472957600080fd5b61473586828701614497565b92505060408401356001600160401b0381111561475157600080fd5b61475d86828701614497565b9150509250925092565b6000806000806080858703121561477d57600080fd5b84356001600160401b0381111561479357600080fd5b61479f87828801614497565b94505060208501356001600160401b038111156147bb57600080fd5b6147c787828801614497565b93505060408501356001600160401b038111156147e357600080fd5b6147ef87828801614497565b92505060608501356001600160401b0381111561480b57600080fd5b61481787828801614497565b91505092959194509250565b60008060008060008060008060006101208a8c03121561484257600080fd5b89356001600160401b0381111561485857600080fd5b6148648c828d01614497565b99505060208a01356001600160401b0381111561488057600080fd5b61488c8c828d01614497565b98505060408a01356001600160401b038111156148a857600080fd5b6148b48c828d01614497565b97505060608a01356001600160401b038111156148d057600080fd5b6148dc8c828d01614497565b96505060808a01356001600160401b038111156148f857600080fd5b6149048c828d01614497565b95505060a08a01356001600160401b0381111561492057600080fd5b61492c8c828d01614497565b94505060c08a01356001600160401b0381111561494857600080fd5b6149548c828d01614497565b93505060e06149658c828d01614481565b9250506101008a01356001600160401b0381111561498257600080fd5b61498e8c828d01614497565b9150509295985092959850929598565b60008060008060008060c087890312156149b757600080fd5b86356001600160401b038111156149cd57600080fd5b6149d989828a01614497565b96505060208701356001600160401b038111156149f557600080fd5b614a0189828a01614497565b95505060408701356001600160401b03811115614a1d57600080fd5b614a2989828a01614497565b9450506060614a3a89828a01614481565b93505060808701356001600160401b03811115614a5657600080fd5b614a6289828a01614497565b92505060a08701356001600160401b03811115614a7e57600080fd5b614a8a89828a01614497565b9150509295509295509295565b614aa0816153ef565b82525050565b614aa0614ab2826153c9565b615448565b614aa0816153c9565b614aa0816153d4565b614aa081614473565b614aa0614ade82614473565b614473565b6000614aee826153bc565b614af8818561299d565b9350614b0881856020860161541c565b9290920192915050565b614aa0816153fa565b6000614b26826153bc565b614b3081856153c0565b9350614b4081856020860161541c565b614b4981615459565b9093019392505050565b600081546001811660008114614b705760018114614b9657614bd5565b607f6002830416614b8181876153c0565b60ff1984168152955050602085019250614bd5565b60028204614ba481876153c0565b9550614baf856153b0565b60005b82811015614bce57815488820152600190910190602001614bb2565b8701945050505b505092915050565b600081546001811660008114614bfa5760018114614c1d57614bd5565b607f6002830416614c0b818761299d565b60ff1984168152955085019250614bd5565b60028204614c2b818761299d565b9550614c36856153b0565b60005b82811015614c5557815488820152600190910190602001614c39565b5050909401949350505050565b6000614c6f6009836153c0565b683a34b6b29037bb32b960b91b815260200192915050565b6000614c938284614ad2565b50602001919050565b6000614ca88284614ae3565b9392505050565b6000614cbb8288614ae3565b9150614cc78287614ae3565b9150614cd38286614ae3565b9150614cdf8285614ad2565b602082019150614cef8284614aa6565b5060140195945050505050565b6000614d08828a614ae3565b9150614d148289614ae3565b9150614d208288614ae3565b9150614d2c8287614ad2565b602082019150614d3c8286614aa6565b601482019150614d4c8285614bdd565b9150614d588284614bdd565b9998505050505050505050565b6000614ca88284614bdd565b6020810161200d8284614ab7565b6101408101614d8e828d614ab7565b8181036020830152614da0818c614b1b565b9050614daf604083018b614b12565b8181036060830152614dc1818a614b1b565b90508181036080830152614dd58189614b1b565b905081810360a0830152614de98188614b1b565b9050614df860c0830187614ac9565b614e0560e0830186614ac9565b614e13610100830185614ac9565b818103610120830152614e268184614b1b565b9c9b505050505050505050505050565b6020810161200d8284614ac0565b6020810161200d8284614b12565b60208082528101614ca88184614b1b565b60a08082528101614e748188614b1b565b90508181036020830152614e888187614b1b565b90508181036040830152614e9c8186614b1b565b9050614eab6060830185614ac9565b8181036080830152614ebd8184614b1b565b979650505050505050565b60c08082528101614ed98189614b1b565b90508181036020830152614eed8188614b1b565b90508181036040830152614f018187614b1b565b9050614f106060830186614ac9565b8181036080830152614f228185614b1b565b905081810360a0830152614f368184614b1b565b98975050505050505050565b6101608082528101614f54818e614b1b565b90508181036020830152614f68818d614b1b565b90508181036040830152614f7c818c614b1b565b90508181036060830152614f90818b614b1b565b9050614f9f608083018a614b12565b81810360a0830152614fb18189614b1b565b905081810360c0830152614fc58188614b1b565b905081810360e0830152614fd98187614b1b565b9050818103610100830152614fee8186614b1b565b9050614ffe610120830185614ac9565b8181036101408301526150118184614b1b565b9d9c50505050505050505050505050565b6101808082528101615034818f614b1b565b90508181036020830152615048818e614b1b565b9050818103604083015261505c818d614b1b565b90508181036060830152615070818c614b1b565b90508181036080830152615084818b614b1b565b905061509360a083018a614ac9565b6150a060c0830189614ab7565b6150ad60e0830188614b12565b6150bb610100830187614ac9565b8181036101208301526150ce8186614b1b565b90508181036101408301526150e38185614b1b565b90508181036101608301526150f88184614b1b565b9e9d5050505050505050505050505050565b60e0808252810161511b818a614b1b565b9050818103602083015261512f8189614b1b565b905081810360408301526151438188614b1b565b905081810360608301526151578187614b1b565b90506151666080830186614ac9565b81810360a08301526151788185614b1b565b905081810360c0830152614d588184614b1b565b6020808252810161200d81614c62565b6020810161200d8284614ac9565b604081016151b88285614ac9565b614ca86020830184614a97565b60c081016151d38289614ac9565b6151e06020830188614ab7565b81810360408301526151f28187614b1b565b905081810360608301526152068186614b1b565b90508181036080830152614f228185614b1b565b6101408101615229828d614ac9565b818103602083015261523b818c614b1b565b9050818103604083015261524f818b614b1b565b90508181036060830152615263818a614b1b565b905081810360808301526152778189614b1b565b905081810360a083015261528b8188614b1b565b905081810360c083015261529f8187614b1b565b905081810360e08301526152b38186614b1b565b9050614e13610100830185614ac9565b61010081016152d2828b614ac9565b81810360208301526152e4818a614b1b565b905081810360408301526152f88189614b53565b9050818103606083015261530c8188614b1b565b905081810360808301526153208187614b1b565b905081810360a08301526153348186614b53565b905061534360c0830185614a97565b81810360e08301526153558184614b53565b9a9950505050505050505050565b6040518181016001600160401b038111828210171561538157600080fd5b604052919050565b60006001600160401b0382111561539f57600080fd5b506020601f91909101601f19160190565b60009081526020902090565b5190565b90815260200190565b600061200d826153e3565b151590565b8061299d81615469565b6001600160a01b031690565b600061200d82615405565b600061200d826153d9565b600061200d826153c9565b82818337506000910152565b60005b8381101561543757818101518382015260200161541f565b8381111561321a5750506000910152565b600061200d82600061200d82615463565b601f01601f191690565b60601b90565b6011811061547357fe5b50565b61547f816153c9565b811461547357600080fd5b61547f8161447356feeaa135841e542189444adc5191278968aecb1297433c06420eb497a3be614fada365627a7a72315820a96caea11c2c0ba328c359e4a48d603b185c564e3470019e8d54523fcd6816966c6578706572696d656e74616cf564736f6c634300050b0040",
  "source": "pragma solidity ^0.5.1;\r\npragma experimental ABIEncoderV2;\r\n contract finnal{\r\n address public admin;\r\n string public apassword;\r\n string  username;\r\n modifier onlyadmin{\r\n  msg.sender==admin;\r\n     _;\r\n }\r\n\r\n constructor (string memory _username,string memory _password) public {\r\n   admin=msg.sender;\r\n     username=_username;\r\n     apassword=_password;\r\n   \r\n }\r\n\r\n function updatepassword(string memory _username,string memory _upassword,string memory _newpassword ) public {\r\n     \r\n     \r\n   if(keccak256(abi.encodePacked(_username))==keccak256(abi.encodePacked(mapstu[_username].username))){\r\n   require((keccak256(abi.encodePacked(_username))==keccak256(abi.encodePacked(mapstu[_username].username)))&&(keccak256(abi.encodePacked(_upassword))==keccak256(abi.encodePacked(mapstu[_username].upassword))));\r\n    mapstu[_username].upassword=_newpassword;\r\n   }\r\n   else if(keccak256(abi.encodePacked(_username))==keccak256(abi.encodePacked(alls[_username].stuid))){\r\n   require((keccak256(abi.encodePacked(_username))==keccak256(abi.encodePacked(alls[_username].stuid)))&&(keccak256(abi.encodePacked(_upassword))==keccak256(abi.encodePacked(alls[_username].pass))));\r\n    alls[_username].pass=_newpassword;\r\n   }\r\n    else if(keccak256(abi.encodePacked(_username))==keccak256(abi.encodePacked(verlist[_username].empid))){\r\n   require((keccak256(abi.encodePacked(_username))==keccak256(abi.encodePacked(verlist[_username].empid)))&&(keccak256(abi.encodePacked(_upassword))==keccak256(abi.encodePacked(verlist[_username].verpass))));\r\n    verlist[_username].verpass=_newpassword;\r\n   }\r\n     \r\n }\r\n \r\n \r\n \r\n \r\n struct user{\r\n     address issueradd;\r\n     string upassword;\r\n     ustatus u;\r\n     string uniname;\r\n     string email;\r\n     string username;\r\n     uint cmm;\r\n     uint pc;\r\n     uint od;\r\n     string imagehash;\r\n \r\n }\r\n// mapping(address=>user[]) ulist;\r\n mapping(string=>user)public mapstu;\r\n //0xc42cd77309e665cba04ff0cc114f21ec1b4f24d1\r\n mapping(address=>bool)uregistered;\r\nevent University(address indexed addedBy, uint timestamp,address _issueradd, string  _uniname, string _email, string  _username,string _imagehash     );\r\n function regissuer(address _issueradd, string memory  _uniname, string memory _email, string memory _username,uint _cmm,uint _pc ,uint _od,string memory _imagehash) public  returns(bool){\r\n  // ulist[_issueradd].push(user({issueradd:_issueradd,upassword:_password,u:ustatus.registered,uniname:_uniname,email:_email,username:_username}));\r\n  user memory temp =user(_issueradd,_username,ustatus.registered,_uniname,_email,_username,_cmm,_pc,_od,_imagehash);\r\n // require( uregistered[_issueradd]==false,\"user already registered\");\r\n   uregistered[_issueradd]=true;\r\n   mapstu[_username]=temp;\r\n   emit University(msg.sender,block.timestamp,_issueradd,_uniname,_email,_username,_imagehash);\r\n   emit certyblock(block.number,msg.sender);\r\n    }\r\n   // event passwordchanged(address admin);\r\n\r\n \r\n        function login(string memory _username, string memory _password) public view returns(uint  ) {\r\n             require(keccak256(abi.encodePacked(_username))==keccak256(abi.encodePacked(username))&&(keccak256(abi.encodePacked(_password))==keccak256(abi.encodePacked(apassword))));\r\n             return 1;  \r\n        }\r\n   \r\nevent certyblock(uint _blno,address fromaccount);\r\n    enum ustatus{notregistered,registered,odgenerated,pccgenerated,cmmgenerated,extadded,intadded,verified,duplicatecert,ccc,pccverified,cmmverified,odverified,duplicatepcc,duplicatecmm,duplicateod,invalid}\r\n    ustatus st;\r\n   \r\n//0x2e515449c89eda30bb3f2183434c0b4bcda37c1c\r\n  struct student{\r\n        string stuid;\r\n       \r\n        string stuname;\r\n        string father;\r\n        string collegename;\r\n      ustatus st;\r\n      string uniname;\r\n      string stuemail;\r\n       string deptname;\r\n      string pass;\r\n      uint stphne;\r\n       string imagehash;\r\n   \r\n     \r\n    }\r\n    //  mapping(string=>student[] ) public studentlist;\r\n      mapping(string=>bool)stureg;\r\n   //   mapping(string=>studentcon[])studentconlist;\r\n   mapping(string=>student) public alls;\r\n   \r\n\r\nevent studentadded(address indexed addedby,uint timestamp,string studentid ,  string studentname , string fathername, string collegename  ,  string uniname,   string studentemail,string  deptname,uint stphonenumber,string _imagehash);\r\nfunction addstudent(string memory _stuid,  string memory  _stuname, string memory  _father, string memory _collegename,  string memory _uniname,   string memory _stuemail,string memory _deptname,uint _phnum, string memory _imagehash) public {\r\n // require( stureg[_stuid]==false,\"student already registered\");\r\n  //  studentlist[_stuid].push(student({stuid:_stuid,stuname:_stuname,father:_father,collegename:_collegename,st:ustatus.registered,uniname:_uniname,stuemail:_stuemail,deptname:_deptname}));\r\n//alls memory temp = alls()\r\nstudent memory temp = student(_stuid,_stuname,_father,_collegename,ustatus.registered,_uniname,_stuemail,_deptname,_stuname,_phnum,_imagehash);\r\nalls[_stuid] = temp;\r\n     stureg[_stuid]=true;\r\n     emit studentadded(msg.sender,block.timestamp,_stuid,_stuname,_father,_collegename,_uniname,_stuemail,_deptname,_phnum,_imagehash);\r\n      emit certyblock(block.number,msg.sender);\r\n}\r\n// function getstudent(string memory _stuid) public view returns(string memory stuid, string memory stuname, string memory father, string memory collegename, ustatus, string memory uniname, string memory stuemail){\r\n//     return(alls[_stuid].stuid,alls[_stuid].stuname,alls[_stuid].father,alls[_stuid].collegename,alls[_stuid].st,alls[_stuid].uniname,alls[_stuid].stuemail   );\r\n// }\r\n\r\n  uint public cmmcount;\r\n  mapping(string=>cmmcertificate)public cmmcertbystudentid;\r\n        function addcmmcertificate(string memory  _certid,   string memory _stuid, string memory _poy, string memory _class) public {\r\n \r\n    bytes32   tcerthash=sha256(abi.encodePacked(_certid,_poy,_class,block.number,msg.sender,alls[_stuid].stuname,alls[_stuid].father));\r\n \r\n      cmmcertificate memory temp=cmmcertificate(_certid,alls[_stuid].deptname,_stuid,_poy,_class,block.timestamp,msg.sender,ustatus.cmmgenerated,tcerthash,alls[_stuid].stuname,alls[_stuid].father,alls[_stuid].collegename);  \r\n     cmmallcerts[_certid]=temp;\r\n    cmmcertbyhash[tcerthash]=temp;\r\n    cmmcertbystudentid[_stuid]=temp;\r\n    cmmcount++;\r\n\r\n  //  allcerthash.push(tcerthash);\r\n emit cmmdetails(block.timestamp,_certid,alls[_stuid].deptname,_stuid,_poy,alls[_stuid].stuname,msg.sender,alls[_stuid].collegename);\r\n  emit certyblock(block.number,msg.sender);\r\n//       }  \r\n//       else if (iscmmgenerated[_stuid]==true){\r\n//           cmmcertificate memory temp=cmmcertificate(_certid,alls[_stuid].deptname,_stuid,_poy,_class,block.timestamp,msg.sender,ustatus.duplicatecmm,tcerthash,alls[_stuid].stuname,alls[_stuid].father,alls[_stuid].collegename);  \r\n//     cmmallcerts[_certid]=temp;\r\n//     cmmcertbyhash[tcerthash]=temp;\r\n//     // cmmcertbystudentid[_stuid]=temp;\r\n//  //   allcerthash.push(tcerthash);\r\n//  emit cmmdetails(block.timestamp,_certid,alls[_stuid].deptname,_stuid,_poy,alls[_stuid].stuname,msg.sender,alls[_stuid].collegename);\r\n//   emit certyblock(block.number,msg.sender);\r\n \r\n//       }\r\n//       //0x1ea859a2946b01a5b5c5e9058dbfa0a23d1ba4a1feaace5ca0355c1960c506b3\r\n       \r\n//       iscmmgenerated[_stuid]=true;\r\n      }\r\n    //  function getcertificatecmm(string memory _certid) public view returns (  string memory _deptname,string memory )\r\n    // {\r\n    //     return( cmmallcerts[_certid].deptname,cmmallcerts[_certid].stuname );\r\n    // }\r\n\r\n\r\n// bytes32 [] hash;\r\n\r\n \r\n \r\n \r\n \r\n\r\n \r\n\r\n \r\n \r\n \r\n     \r\n               \r\n  struct odcertificate{\r\n        string certid;\r\n       \r\n     \r\n        string deptname;\r\n        string stuid;\r\n       string poy;\r\n   \r\n       string class;\r\n         uint timeOfIssue;\r\n       \r\n       address issuedby;\r\n       ustatus st;\r\n       bytes32 tcerthash;\r\n          string stuname;\r\n       string father;\r\n         string collegename;\r\n        // string uni;\r\n     //  string collegename;\r\n    }\r\n   \r\n    struct cmmcertificate{\r\n        string certid;\r\n       \r\n     \r\n        string deptname;\r\n        string stuid;\r\n       string poy;\r\n   \r\n       string class;\r\n         uint timeOfIssue;\r\n       \r\n       address issuedby;\r\n       ustatus st;\r\n       bytes32 tcerthash;\r\n       string stuname;\r\n       string father;\r\n         string collegename;\r\n    //  ustatus st;\r\n    //  string uniname;\r\n   //   string stuemail;\r\n       \r\n    }\r\n      struct pcccertificate{\r\n        string certid;\r\n       \r\n     \r\n        string deptname;\r\n        string stuid;\r\n       string poy;\r\n   \r\n       string class;\r\n         uint timeOfIssue;\r\n       \r\n       address issuedby;\r\n       ustatus st;\r\n       bytes32 tcerthash;\r\n          string stuname;\r\n       string father;\r\n         string collegename;\r\n     //  string collegename;\r\n    }\r\n  //  mapping(string=>pcccertificate) pccbystudent;\r\n       mapping(string=>pcccertificate) public  pccallcerts;\r\nmapping(bytes32=>pcccertificate)public pcccertbyhash;\r\n//mapping(string=>cmmcertificate) cmmbystudent;\r\n    mapping(string=>cmmcertificate) public cmmallcerts;\r\nmapping(bytes32=>cmmcertificate)public cmmcertbyhash;\r\n//mapping(string=>odcertificate)public odcertbystudent;\r\nmapping(string=>odcertificate) public odallcerts;\r\nmapping(bytes32=>odcertificate)public odcertbyhash;\r\nmapping(bytes32=>bytes32[]) certhash;\r\n//mapping(address=>certificate)public certbyhasharr;\r\n   //   bytes32 [] public allcerthash;\r\n      event oddetails( uint timestamp, string   _certid,  string  _deptname, string  _stuid, string  _poy, string _stname,address issuedby,string collegename);\r\n   event cmmdetails( uint timestamp, string   _certid,  string  _deptname, string  _stuid, string  _poy,string _stname,address issuedby,string collegename);\r\n   event pccdetails( uint timestamp, string   _certid,  string  _deptname, string  _stuid, string  _poy,string _stname,address issuedby,string collegename);\r\n   \r\n    // mapping(string=>bool)  isodcertgenerated;\r\n       \r\nmapping(string=>odcertificate)public odcert;\r\n    uint public odcount;\r\n      function addodcertificate(string memory  _certid,   string memory _stuid, string memory _poy, string memory _class) public {\r\n \r\n    bytes32   tcerthash=sha256(abi.encodePacked(_certid,_poy,_class,block.number,msg.sender));\r\n    //  if( isodcertgenerated[_stuid]==false){\r\n      odcertificate memory temp=odcertificate(_certid,alls[_stuid].deptname,_stuid,_poy,_class,block.timestamp,msg.sender,ustatus.odgenerated,tcerthash,alls[_stuid].stuname,alls[_stuid].father,alls[_stuid].collegename);  \r\n    odallcerts[_certid]=temp;\r\n    odcertbyhash[tcerthash]=temp;\r\n    odcert[_stuid]=temp;\r\n   // odcount++;\r\n //   odcount++;\r\n   // allcerthash.push(tcerthash);\r\n//   isodcertgenerated[_stuid]=true;\r\n    odcount++;\r\n emit oddetails(block.timestamp,_certid,alls[_stuid].deptname,_stuid,_poy,alls[_stuid].stuname,msg.sender,alls[_stuid].collegename);\r\n    emit certyblock(block.number,msg.sender);\r\n//       }  \r\n//       else if (isodcertgenerated[_stuid]==true){\r\n//             odcertificate memory temp=odcertificate(_certid,alls[_stuid].deptname,_stuid,_poy,_class,block.timestamp,msg.sender,ustatus.duplicateod,tcerthash,alls[_stuid].stuname,alls[_stuid].father,alls[_stuid].collegename);  \r\n//     odallcerts[_certid]=temp;\r\n//     odcertbyhash[tcerthash]=temp;\r\n//  //      odcount++;\r\n//     //allcerthash.push(tcerthash);\r\n//  emit oddetails(block.timestamp,_certid,alls[_stuid].deptname,_stuid,_poy,alls[_stuid].stuname,msg.sender,alls[_stuid].collegename);\r\n//     emit certyblock(block.number,msg.sender);\r\n \r\n//       }\r\n//       isodcertgenerated[_stuid]=true;\r\n      }\r\n    //   mapping(string=>bool)  ispccgenerated;\r\n     \r\n  uint public pcccount;\r\n  mapping(string=>pcccertificate)public pcccertbystudent;\r\n             function addpcccertificate(string memory  _certid,   string memory _stuid, string memory _poy, string memory _class) public {\r\n \r\n    bytes32   tcerthash=sha256(abi.encodePacked(_certid,_poy,_class,block.number,msg.sender));\r\n        //  if( ispccgenerated[_stuid]==false){\r\n      pcccertificate memory temp=pcccertificate(_certid,alls[_stuid].deptname,_stuid,_poy,_class,block.timestamp,msg.sender,ustatus.pccgenerated,tcerthash,alls[_stuid].stuname,alls[_stuid].father,alls[_stuid].collegename);  \r\n   pccallcerts[_certid]=temp;\r\n    pcccertbyhash[tcerthash]=temp;\r\n    pcccertbystudent[_stuid]=temp;\r\n   pcccount++;\r\n   //  allcerthash.push(tcerthash);\r\n    // ispccgenerated[_stuid]=true;\r\n emit pccdetails(block.timestamp,_certid,alls[_stuid].deptname,_stuid,_poy,alls[_stuid].stuname,msg.sender,alls[_stuid].collegename);\r\n    emit certyblock(block.number,msg.sender);\r\n//       }  \r\n//       else if (ispccgenerated[_stuid]==true){\r\n//           pcccertificate memory temp=pcccertificate(_certid,alls[_stuid].deptname,_stuid,_poy,_class,block.timestamp,msg.sender,ustatus.duplicatepcc,tcerthash,alls[_stuid].stuname,alls[_stuid].father,alls[_stuid].collegename);  \r\n//     pccallcerts[_certid]=temp;\r\n//     pcccertbyhash[tcerthash]=temp;\r\n//   //  allcerthash.push(tcerthash);\r\n//  emit pccdetails(block.timestamp,_certid,alls[_stuid].deptname,_stuid,_poy,alls[_stuid].stuname,msg.sender,alls[_stuid].collegename);\r\n//     emit certyblock(block.number,msg.sender);\r\n       }\r\n \r\n     \r\n    //   function verify(bytes32 _tcerthash)public view returns(ustatus) {\r\n    //       require(keccak256(abi.encodePacked(_tcerthash))== keccak256(abi.encodePacked(odcertbyhash[_tcerthash].tcerthash)) ||keccak256(abi.encodePacked(_tcerthash))== keccak256(abi.encodePacked(cmmcertbyhash[_tcerthash].tcerthash))||keccak256(abi.encodePacked(_tcerthash))== keccak256(abi.encodePacked(pcccertbyhash[_tcerthash].tcerthash)),\"invalid hash\");\r\n    // return ustatus.verified;\r\n   \r\n    //   }\r\n \r\n     function verify(bytes32 _tcerthash)public view returns(ustatus) {\r\n        if(keccak256(abi.encodePacked(_tcerthash))== keccak256(abi.encodePacked(odcertbyhash[_tcerthash].tcerthash))){\r\n     \r\n           \r\n             return ustatus.odverified;\r\n        }\r\n     \r\n        else if(keccak256(abi.encodePacked(_tcerthash))== keccak256(abi.encodePacked(cmmcertbyhash[_tcerthash].tcerthash))){\r\n             return ustatus.cmmverified;\r\n        }\r\n             else if(keccak256(abi.encodePacked(_tcerthash))== keccak256(abi.encodePacked(pcccertbyhash[_tcerthash].tcerthash))){\r\n             return ustatus.pccverified;\r\n        }\r\n        else return ustatus.invalid;\r\n      }\r\n     \r\n          struct ver{\r\n         string empid;\r\n         string vername;\r\n         string verpass;\r\n         string uniname;\r\n         uint time;\r\n       //  uint tnow;\r\n         string companyname;\r\n         string image;\r\n         \r\n         \r\n     }\r\n     mapping(string=>ver) public verlist;\r\n     event Employer(string empid,string vername,string uniname,uint time,string companyname);\r\n     \r\n     \r\n     \r\n     function addver(string memory _empid,string memory _vername,string memory  _uniname,uint _time,string memory  _companyname,string memory _image)public   {\r\n         ver memory temp=ver(_empid,_vername, _vername,_uniname,block.timestamp+_time * 4 weeks,_companyname,_image);\r\n         verlist[_empid]=temp;\r\n         emit Employer(_empid,_vername,_uniname,verlist[_vername].time,_companyname);\r\n            emit certyblock(block.number,msg.sender);\r\n     }\r\n     uint public now; \r\n\r\n         function getverlist(string memory _vername) public view returns (string memory,string memory,string memory,uint,string memory,string memory ){\r\n             require( verlist[_vername].time>block.timestamp,\"time over\");\r\n          return (verlist[_vername].vername,verlist[_vername].verpass,verlist[_vername].uniname,verlist[_vername].time,verlist[_vername].companyname,verlist[_vername].image);\r\n        }      \r\n \r\n\r\n \r\n     \r\n }",
  "sourcePath": "C:\\Users\\Administrator\\Desktop\\Blockchain Projects\\API S Folders\\mm-master\\MailServer\\upsteer\\contracts\\finnal.sol",
  "compiler": {
    "name": "solc",
    "version": "0.5.11+commit.c082d0b4.Emscripten.clang"
  },
  "schemaVersion": "3.0.17",
  "updatedAt": "2020-05-12T16:14:07.065Z",
  "networkType": "ethereum",
  "devdoc": {
    "methods": {}
  },
  "userdoc": {
    "methods": {}
  }
}