{
  "contractName": "newdigital",
  "abi": [
    {
      "constant": true,
      "inputs": [
        {
          "internalType": "string",
          "name": "",
          "type": "string"
        },
        {
          "internalType": "uint256",
          "name": "",
          "type": "uint256"
        }
      ],
      "name": "stuinterwise",
      "outputs": [
        {
          "internalType": "string",
          "name": "stuid",
          "type": "string"
        },
        {
          "internalType": "string",
          "name": "sem",
          "type": "string"
        },
        {
          "internalType": "uint256",
          "name": "mark1",
          "type": "uint256"
        },
        {
          "internalType": "uint256",
          "name": "mark2",
          "type": "uint256"
        },
        {
          "internalType": "uint256",
          "name": "mark3",
          "type": "uint256"
        },
        {
          "internalType": "uint256",
          "name": "mark4",
          "type": "uint256"
        },
        {
          "internalType": "uint256",
          "name": "mark5",
          "type": "uint256"
        }
      ],
      "payable": false,
      "stateMutability": "view",
      "type": "function"
    },
    {
      "constant": true,
      "inputs": [
        {
          "internalType": "string",
          "name": "",
          "type": "string"
        },
        {
          "internalType": "uint256",
          "name": "",
          "type": "uint256"
        }
      ],
      "name": "subjectwise",
      "outputs": [
        {
          "internalType": "string",
          "name": "stuid",
          "type": "string"
        },
        {
          "internalType": "string",
          "name": "sem",
          "type": "string"
        },
        {
          "internalType": "string",
          "name": "sub1",
          "type": "string"
        },
        {
          "internalType": "string",
          "name": "sub2",
          "type": "string"
        },
        {
          "internalType": "string",
          "name": "sub3",
          "type": "string"
        },
        {
          "internalType": "string",
          "name": "sub4",
          "type": "string"
        },
        {
          "internalType": "string",
          "name": "sub5",
          "type": "string"
        }
      ],
      "payable": false,
      "stateMutability": "view",
      "type": "function"
    },
    {
      "constant": true,
      "inputs": [
        {
          "internalType": "string",
          "name": "",
          "type": "string"
        },
        {
          "internalType": "uint256",
          "name": "",
          "type": "uint256"
        }
      ],
      "name": "stuexternalwise",
      "outputs": [
        {
          "internalType": "string",
          "name": "stuid",
          "type": "string"
        },
        {
          "internalType": "string",
          "name": "sem",
          "type": "string"
        },
        {
          "internalType": "uint256",
          "name": "mark1",
          "type": "uint256"
        },
        {
          "internalType": "uint256",
          "name": "mark2",
          "type": "uint256"
        },
        {
          "internalType": "uint256",
          "name": "mark3",
          "type": "uint256"
        },
        {
          "internalType": "uint256",
          "name": "mark4",
          "type": "uint256"
        },
        {
          "internalType": "uint256",
          "name": "mark5",
          "type": "uint256"
        }
      ],
      "payable": false,
      "stateMutability": "view",
      "type": "function"
    },
    {
      "inputs": [
        {
          "internalType": "address",
          "name": "_finnal",
          "type": "address"
        }
      ],
      "payable": false,
      "stateMutability": "nonpayable",
      "type": "constructor"
    },
    {
      "anonymous": false,
      "inputs": [
        {
          "indexed": false,
          "internalType": "string",
          "name": "stuid",
          "type": "string"
        },
        {
          "indexed": false,
          "internalType": "string",
          "name": "companyname",
          "type": "string"
        },
        {
          "indexed": false,
          "internalType": "string",
          "name": "certid",
          "type": "string"
        },
        {
          "indexed": false,
          "internalType": "string",
          "name": "empid",
          "type": "string"
        },
        {
          "indexed": false,
          "internalType": "uint256",
          "name": "verifiedtime",
          "type": "uint256"
        }
      ],
      "name": "verifylist",
      "type": "event"
    },
    {
      "anonymous": false,
      "inputs": [
        {
          "indexed": false,
          "internalType": "string",
          "name": "stuid",
          "type": "string"
        },
        {
          "indexed": false,
          "internalType": "string",
          "name": "companyname",
          "type": "string"
        },
        {
          "indexed": false,
          "internalType": "string",
          "name": "certid",
          "type": "string"
        },
        {
          "indexed": false,
          "internalType": "string",
          "name": "empid",
          "type": "string"
        },
        {
          "indexed": false,
          "internalType": "uint256",
          "name": "rejectedtime",
          "type": "uint256"
        }
      ],
      "name": "rejectedlist",
      "type": "event"
    },
    {
      "anonymous": false,
      "inputs": [
        {
          "indexed": false,
          "internalType": "uint256",
          "name": "_blno",
          "type": "uint256"
        },
        {
          "indexed": false,
          "internalType": "uint256",
          "name": "time",
          "type": "uint256"
        },
        {
          "indexed": false,
          "internalType": "address",
          "name": "from",
          "type": "address"
        }
      ],
      "name": "certyblock",
      "type": "event"
    },
    {
      "anonymous": false,
      "inputs": [
        {
          "indexed": true,
          "internalType": "address",
          "name": "addedby",
          "type": "address"
        },
        {
          "indexed": false,
          "internalType": "uint256",
          "name": "timestamp",
          "type": "uint256"
        },
        {
          "indexed": false,
          "internalType": "string",
          "name": "_stuid",
          "type": "string"
        },
        {
          "indexed": false,
          "internalType": "string",
          "name": "_sem",
          "type": "string"
        },
        {
          "indexed": false,
          "internalType": "string",
          "name": "_sub1",
          "type": "string"
        },
        {
          "indexed": false,
          "internalType": "string",
          "name": "_sub2",
          "type": "string"
        },
        {
          "indexed": false,
          "internalType": "string",
          "name": "_sub3",
          "type": "string"
        },
        {
          "indexed": false,
          "internalType": "string",
          "name": "_sub4",
          "type": "string"
        },
        {
          "indexed": false,
          "internalType": "string",
          "name": "_sub5",
          "type": "string"
        }
      ],
      "name": "subjectadded",
      "type": "event"
    },
    {
      "anonymous": false,
      "inputs": [
        {
          "indexed": true,
          "internalType": "address",
          "name": "addedby",
          "type": "address"
        },
        {
          "indexed": false,
          "internalType": "uint256",
          "name": "timestamp",
          "type": "uint256"
        },
        {
          "indexed": false,
          "internalType": "string",
          "name": "_stid",
          "type": "string"
        },
        {
          "indexed": false,
          "internalType": "string",
          "name": "_sem",
          "type": "string"
        },
        {
          "indexed": false,
          "internalType": "uint256",
          "name": "mark1",
          "type": "uint256"
        },
        {
          "indexed": false,
          "internalType": "uint256",
          "name": "mark2",
          "type": "uint256"
        },
        {
          "indexed": false,
          "internalType": "uint256",
          "name": "mark3",
          "type": "uint256"
        },
        {
          "indexed": false,
          "internalType": "uint256",
          "name": "mark4",
          "type": "uint256"
        },
        {
          "indexed": false,
          "internalType": "uint256",
          "name": "mark5",
          "type": "uint256"
        }
      ],
      "name": "externalsadded",
      "type": "event"
    },
    {
      "anonymous": false,
      "inputs": [
        {
          "indexed": true,
          "internalType": "address",
          "name": "addedby",
          "type": "address"
        },
        {
          "indexed": false,
          "internalType": "uint256",
          "name": "timestamp",
          "type": "uint256"
        },
        {
          "indexed": false,
          "internalType": "string",
          "name": "_stid",
          "type": "string"
        },
        {
          "indexed": false,
          "internalType": "string",
          "name": "_sem",
          "type": "string"
        },
        {
          "indexed": false,
          "internalType": "uint256",
          "name": "mark1",
          "type": "uint256"
        },
        {
          "indexed": false,
          "internalType": "uint256",
          "name": "mark2",
          "type": "uint256"
        },
        {
          "indexed": false,
          "internalType": "uint256",
          "name": "mark3",
          "type": "uint256"
        },
        {
          "indexed": false,
          "internalType": "uint256",
          "name": "mark4",
          "type": "uint256"
        },
        {
          "indexed": false,
          "internalType": "uint256",
          "name": "mark5",
          "type": "uint256"
        }
      ],
      "name": "internalsadded",
      "type": "event"
    },
    {
      "constant": false,
      "inputs": [
        {
          "internalType": "string",
          "name": "stuid",
          "type": "string"
        },
        {
          "internalType": "string",
          "name": "companyname",
          "type": "string"
        },
        {
          "internalType": "string",
          "name": "certid",
          "type": "string"
        },
        {
          "internalType": "string",
          "name": "empid",
          "type": "string"
        }
      ],
      "name": "addverifierdata",
      "outputs": [],
      "payable": false,
      "stateMutability": "nonpayable",
      "type": "function"
    },
    {
      "constant": false,
      "inputs": [
        {
          "internalType": "string",
          "name": "stuid",
          "type": "string"
        },
        {
          "internalType": "string",
          "name": "companyname",
          "type": "string"
        },
        {
          "internalType": "string",
          "name": "certid",
          "type": "string"
        },
        {
          "internalType": "string",
          "name": "empid",
          "type": "string"
        }
      ],
      "name": "addrejecteddata",
      "outputs": [],
      "payable": false,
      "stateMutability": "nonpayable",
      "type": "function"
    },
    {
      "constant": false,
      "inputs": [
        {
          "internalType": "string",
          "name": "_stuid",
          "type": "string"
        },
        {
          "internalType": "string",
          "name": "_sem",
          "type": "string"
        },
        {
          "internalType": "string",
          "name": "_sub1",
          "type": "string"
        },
        {
          "internalType": "string",
          "name": "_sub2",
          "type": "string"
        },
        {
          "internalType": "string",
          "name": "_sub3",
          "type": "string"
        },
        {
          "internalType": "string",
          "name": "_sub4",
          "type": "string"
        },
        {
          "internalType": "string",
          "name": "_sub5",
          "type": "string"
        }
      ],
      "name": "addsubject",
      "outputs": [],
      "payable": false,
      "stateMutability": "nonpayable",
      "type": "function"
    },
    {
      "constant": false,
      "inputs": [
        {
          "internalType": "string",
          "name": "_stuid",
          "type": "string"
        },
        {
          "internalType": "string",
          "name": "_sem",
          "type": "string"
        },
        {
          "internalType": "uint256",
          "name": "_mark1",
          "type": "uint256"
        },
        {
          "internalType": "uint256",
          "name": "_mark2",
          "type": "uint256"
        },
        {
          "internalType": "uint256",
          "name": "_mark3",
          "type": "uint256"
        },
        {
          "internalType": "uint256",
          "name": "_mark4",
          "type": "uint256"
        },
        {
          "internalType": "uint256",
          "name": "_mark5",
          "type": "uint256"
        }
      ],
      "name": "addinnternal",
      "outputs": [],
      "payable": false,
      "stateMutability": "nonpayable",
      "type": "function"
    },
    {
      "constant": false,
      "inputs": [
        {
          "internalType": "string",
          "name": "_stuid",
          "type": "string"
        },
        {
          "internalType": "string",
          "name": "_sem",
          "type": "string"
        },
        {
          "internalType": "uint256",
          "name": "_mark1",
          "type": "uint256"
        },
        {
          "internalType": "uint256",
          "name": "_mark2",
          "type": "uint256"
        },
        {
          "internalType": "uint256",
          "name": "_mark3",
          "type": "uint256"
        },
        {
          "internalType": "uint256",
          "name": "_mark4",
          "type": "uint256"
        },
        {
          "internalType": "uint256",
          "name": "_mark5",
          "type": "uint256"
        }
      ],
      "name": "addext",
      "outputs": [],
      "payable": false,
      "stateMutability": "nonpayable",
      "type": "function"
    }
  ],
  "bytecode": "0x608060405234801561001057600080fd5b506040516123733803806123738339818101604052602081101561003357600080fd5b5051600080546001600160a01b039092166001600160a01b031990921691909117905561230e806100656000396000f3fe608060405234801561001057600080fd5b50600436106100885760003560e01c80639f4d7f0d1161005b5780639f4d7f0d146107dc578063a2cc89b114610b9e578063e8b40dff14610f23578063edb0d4341461106357610088565b806307e8b9bd1461008d5780631b35bf4c146101cf57806338ed6b0e146104025780639a91683e146105a9575b600080fd5b6101cd600480360360e08110156100a357600080fd5b810190602081018135600160201b8111156100bd57600080fd5b8201836020820111156100cf57600080fd5b803590602001918460018302840111600160201b831117156100f057600080fd5b91908080601f0160208091040260200160405190810160405280939291908181526020018383808284376000920191909152509295949360208101935035915050600160201b81111561014257600080fd5b82018360208201111561015457600080fd5b803590602001918460018302840111600160201b8311171561017557600080fd5b91908080601f0160208091040260200160405190810160405280939291908181526020018383808284376000920191909152509295505082359350505060208101359060408101359060608101359060800135611109565b005b6101cd600480360360808110156101e557600080fd5b810190602081018135600160201b8111156101ff57600080fd5b82018360208201111561021157600080fd5b803590602001918460018302840111600160201b8311171561023257600080fd5b91908080601f0160208091040260200160405190810160405280939291908181526020018383808284376000920191909152509295949360208101935035915050600160201b81111561028457600080fd5b82018360208201111561029657600080fd5b803590602001918460018302840111600160201b831117156102b757600080fd5b91908080601f0160208091040260200160405190810160405280939291908181526020018383808284376000920191909152509295949360208101935035915050600160201b81111561030957600080fd5b82018360208201111561031b57600080fd5b803590602001918460018302840111600160201b8311171561033c57600080fd5b91908080601f0160208091040260200160405190810160405280939291908181526020018383808284376000920191909152509295949360208101935035915050600160201b81111561038e57600080fd5b8201836020820111156103a057600080fd5b803590602001918460018302840111600160201b831117156103c157600080fd5b91908080601f016020809104026020016040519081016040528093929190818152602001838380828437600092019190915250929550611398945050505050565b6104a86004803603604081101561041857600080fd5b810190602081018135600160201b81111561043257600080fd5b82018360208201111561044457600080fd5b803590602001918460018302840111600160201b8311171561046557600080fd5b91908080601f0160208091040260200160405190810160405280939291908181526020018383808284376000920191909152509295505091359250611574915050565b60405180806020018060200188815260200187815260200186815260200185815260200184815260200183810383528a818151815260200191508051906020019080838360005b838110156105075781810151838201526020016104ef565b50505050905090810190601f1680156105345780820380516001836020036101000a031916815260200191505b5083810382528951815289516020918201918b019080838360005b8381101561056757818101518382015260200161054f565b50505050905090810190601f1680156105945780820380516001836020036101000a031916815260200191505b50995050505050505050505060405180910390f35b6101cd600480360360808110156105bf57600080fd5b810190602081018135600160201b8111156105d957600080fd5b8201836020820111156105eb57600080fd5b803590602001918460018302840111600160201b8311171561060c57600080fd5b91908080601f0160208091040260200160405190810160405280939291908181526020018383808284376000920191909152509295949360208101935035915050600160201b81111561065e57600080fd5b82018360208201111561067057600080fd5b803590602001918460018302840111600160201b8311171561069157600080fd5b91908080601f0160208091040260200160405190810160405280939291908181526020018383808284376000920191909152509295949360208101935035915050600160201b8111156106e357600080fd5b8201836020820111156106f557600080fd5b803590602001918460018302840111600160201b8311171561071657600080fd5b91908080601f0160208091040260200160405190810160405280939291908181526020018383808284376000920191909152509295949360208101935035915050600160201b81111561076857600080fd5b82018360208201111561077a57600080fd5b803590602001918460018302840111600160201b8311171561079b57600080fd5b91908080601f0160208091040260200160405190810160405280939291908181526020018383808284376000920191909152509295506116fb945050505050565b6101cd600480360360e08110156107f257600080fd5b810190602081018135600160201b81111561080c57600080fd5b82018360208201111561081e57600080fd5b803590602001918460018302840111600160201b8311171561083f57600080fd5b91908080601f0160208091040260200160405190810160405280939291908181526020018383808284376000920191909152509295949360208101935035915050600160201b81111561089157600080fd5b8201836020820111156108a357600080fd5b803590602001918460018302840111600160201b831117156108c457600080fd5b91908080601f0160208091040260200160405190810160405280939291908181526020018383808284376000920191909152509295949360208101935035915050600160201b81111561091657600080fd5b82018360208201111561092857600080fd5b803590602001918460018302840111600160201b8311171561094957600080fd5b91908080601f0160208091040260200160405190810160405280939291908181526020018383808284376000920191909152509295949360208101935035915050600160201b81111561099b57600080fd5b8201836020820111156109ad57600080fd5b803590602001918460018302840111600160201b831117156109ce57600080fd5b91908080601f0160208091040260200160405190810160405280939291908181526020018383808284376000920191909152509295949360208101935035915050600160201b811115610a2057600080fd5b820183602082011115610a3257600080fd5b803590602001918460018302840111600160201b83111715610a5357600080fd5b91908080601f0160208091040260200160405190810160405280939291908181526020018383808284376000920191909152509295949360208101935035915050600160201b811115610aa557600080fd5b820183602082011115610ab757600080fd5b803590602001918460018302840111600160201b83111715610ad857600080fd5b91908080601f0160208091040260200160405190810160405280939291908181526020018383808284376000920191909152509295949360208101935035915050600160201b811115610b2a57600080fd5b820183602082011115610b3c57600080fd5b803590602001918460018302840111600160201b83111715610b5d57600080fd5b91908080601f01602080910402602001604051908101604052809392919081815260200183838082843760009201919091525092955061176f945050505050565b610c4460048036036040811015610bb457600080fd5b810190602081018135600160201b811115610bce57600080fd5b820183602082011115610be057600080fd5b803590602001918460018302840111600160201b83111715610c0157600080fd5b91908080601f0160208091040260200160405190810160405280939291908181526020018383808284376000920191909152509295505091359250611c36915050565b604051808060200180602001806020018060200180602001806020018060200188810388528f818151815260200191508051906020019080838360005b83811015610c99578181015183820152602001610c81565b50505050905090810190601f168015610cc65780820380516001836020036101000a031916815260200191505b5088810387528e818151815260200191508051906020019080838360005b83811015610cfc578181015183820152602001610ce4565b50505050905090810190601f168015610d295780820380516001836020036101000a031916815260200191505b5088810386528d5181528d516020918201918f019080838360005b83811015610d5c578181015183820152602001610d44565b50505050905090810190601f168015610d895780820380516001836020036101000a031916815260200191505b5088810385528c5181528c516020918201918e019080838360005b83811015610dbc578181015183820152602001610da4565b50505050905090810190601f168015610de95780820380516001836020036101000a031916815260200191505b5088810384528b5181528b516020918201918d019080838360005b83811015610e1c578181015183820152602001610e04565b50505050905090810190601f168015610e495780820380516001836020036101000a031916815260200191505b5088810383528a5181528a516020918201918c019080838360005b83811015610e7c578181015183820152602001610e64565b50505050905090810190601f168015610ea95780820380516001836020036101000a031916815260200191505b5088810382528951815289516020918201918b019080838360005b83811015610edc578181015183820152602001610ec4565b50505050905090810190601f168015610f095780820380516001836020036101000a031916815260200191505b509e50505050505050505050505050505060405180910390f35b6101cd600480360360e0811015610f3957600080fd5b810190602081018135600160201b811115610f5357600080fd5b820183602082011115610f6557600080fd5b803590602001918460018302840111600160201b83111715610f8657600080fd5b91908080601f0160208091040260200160405190810160405280939291908181526020018383808284376000920191909152509295949360208101935035915050600160201b811115610fd857600080fd5b820183602082011115610fea57600080fd5b803590602001918460018302840111600160201b8311171561100b57600080fd5b91908080601f0160208091040260200160405190810160405280939291908181526020018383808284376000920191909152509295505082359350505060208101359060408101359060608101359060800135612071565b6104a86004803603604081101561107957600080fd5b810190602081018135600160201b81111561109357600080fd5b8201836020820111156110a557600080fd5b803590602001918460018302840111600160201b831117156110c657600080fd5b91908080601f0160208091040260200160405190810160405280939291908181526020018383808284376000920191909152509295505091359250612216915050565b6002866040518082805190602001908083835b6020831061113b5780518252601f19909201916020918201910161111c565b51815160209384036101000a600019018019909216911617905292019485525060408051948590038201852060e0860182528c86528583018c90529085018a9052606085018990526080850188905260a0850187905260c08501869052805460018101808355600092835291839020865180519397965060079092020193506111c892849291019061223e565b5060208281015180516111e1926001850192019061223e565b5060408201518160020155606082015181600301556080820151816004015560a0820151816005015560c08201518160060155505050336001600160a01b03167f4acf8abb212a421dddd05fe7d4a200a38b42d984ed5ad9124cfea054ae9247bb428989898989898960405180898152602001806020018060200188815260200187815260200186815260200185815260200184815260200183810383528a818151815260200191508051906020019080838360005b838110156112af578181015183820152602001611297565b50505050905090810190601f1680156112dc5780820380516001836020036101000a031916815260200191505b5083810382528951815289516020918201918b019080838360005b8381101561130f5781810151838201526020016112f7565b50505050905090810190601f16801561133c5780820380516001836020036101000a031916815260200191505b509a505050505050505050505060405180910390a260408051438152426020820152338183015290517f7f3eae4ab20b1916988da8b2ac158958106cb21b21820f51a15749208d41da869181900360600190a150505050505050565b7f5694e07e27121ba6127391b6670a5cbf50754e4fb5b97f47ba19e624881e9a218484848442604051808060200180602001806020018060200186815260200185810385528a818151815260200191508051906020019080838360005b8381101561140d5781810151838201526020016113f5565b50505050905090810190601f16801561143a5780820380516001836020036101000a031916815260200191505b5085810384528951815289516020918201918b019080838360005b8381101561146d578181015183820152602001611455565b50505050905090810190601f16801561149a5780820380516001836020036101000a031916815260200191505b5085810383528851815288516020918201918a019080838360005b838110156114cd5781810151838201526020016114b5565b50505050905090810190601f1680156114fa5780820380516001836020036101000a031916815260200191505b50858103825287518152875160209182019189019080838360005b8381101561152d578181015183820152602001611515565b50505050905090810190601f16801561155a5780820380516001836020036101000a031916815260200191505b50995050505050505050505060405180910390a150505050565b8151602081840181018051600182529282019185019190912091905280548290811061159c57fe5b60009182526020918290206007919091020180546040805160026001841615610100026000190190931692909204601f8101859004850283018501909152808252919450925083918301828280156116355780601f1061160a57610100808354040283529160200191611635565b820191906000526020600020905b81548152906001019060200180831161161857829003601f168201915b505050505090806001018054600181600116156101000203166002900480601f0160208091040260200160405190810160405280929190818152602001828054600181600116156101000203166002900480156116d35780601f106116a8576101008083540402835291602001916116d3565b820191906000526020600020905b8154815290600101906020018083116116b657829003601f168201915b5050505050908060020154908060030154908060040154908060050154908060060154905087565b7fa97329f4f2b3c5ae19fe038edcf70fc630cf15e6ca95759047941f55b61284ba8484848442604051808060200180602001806020018060200186815260200185810385528a818151815260200191508051906020019080838360008381101561140d5781810151838201526020016113f5565b6003876040518082805190602001908083835b602083106117a15780518252601f199092019160209182019101611782565b51815160209384036101000a600019018019909216911617905292019485525060408051948590038201852060e0860182528c86528583018c90529085018a9052606085018990526080850188905260a0850187905260c085018690528054600181018083556000928352918390208651805193979650600790920201935061182e92849291019061223e565b506020828101518051611847926001850192019061223e565b506040820151805161186391600284019160209091019061223e565b506060820151805161187f91600384019160209091019061223e565b506080820151805161189b91600484019160209091019061223e565b5060a082015180516118b791600584019160209091019061223e565b5060c082015180516118d391600684019160209091019061223e565b50505050336001600160a01b03167fa4530c1540cbb250f4568aab0eb7d889f7f5ba9fbb0ecc729748b5726751a7034289898989898989604051808981526020018060200180602001806020018060200180602001806020018060200188810388528f818151815260200191508051906020019080838360005b8381101561196557818101518382015260200161194d565b50505050905090810190601f1680156119925780820380516001836020036101000a031916815260200191505b5088810387528e818151815260200191508051906020019080838360005b838110156119c85781810151838201526020016119b0565b50505050905090810190601f1680156119f55780820380516001836020036101000a031916815260200191505b5088810386528d5181528d516020918201918f019080838360005b83811015611a28578181015183820152602001611a10565b50505050905090810190601f168015611a555780820380516001836020036101000a031916815260200191505b5088810385528c5181528c516020918201918e019080838360005b83811015611a88578181015183820152602001611a70565b50505050905090810190601f168015611ab55780820380516001836020036101000a031916815260200191505b5088810384528b5181528b516020918201918d019080838360005b83811015611ae8578181015183820152602001611ad0565b50505050905090810190601f168015611b155780820380516001836020036101000a031916815260200191505b5088810383528a5181528a516020918201918c019080838360005b83811015611b48578181015183820152602001611b30565b50505050905090810190601f168015611b755780820380516001836020036101000a031916815260200191505b5088810382528951815289516020918201918b019080838360005b83811015611ba8578181015183820152602001611b90565b50505050905090810190601f168015611bd55780820380516001836020036101000a031916815260200191505b509f5050505050505050505050505050505060405180910390a260408051438152426020820152338183015290517f7f3eae4ab20b1916988da8b2ac158958106cb21b21820f51a15749208d41da869181900360600190a150505050505050565b81516020818401810180516003825292820191850191909120919052805482908110611c5e57fe5b60009182526020918290206007919091020180546040805160026001841615610100026000190190931692909204601f810185900485028301850190915280825291945092508391830182828015611cf75780601f10611ccc57610100808354040283529160200191611cf7565b820191906000526020600020905b815481529060010190602001808311611cda57829003601f168201915b505050505090806001018054600181600116156101000203166002900480601f016020809104026020016040519081016040528092919081815260200182805460018160011615610100020316600290048015611d955780601f10611d6a57610100808354040283529160200191611d95565b820191906000526020600020905b815481529060010190602001808311611d7857829003601f168201915b50505060028085018054604080516020601f6000196101006001871615020190941695909504928301859004850281018501909152818152959695945090925090830182828015611e275780601f10611dfc57610100808354040283529160200191611e27565b820191906000526020600020905b815481529060010190602001808311611e0a57829003601f168201915b5050505060038301805460408051602060026001851615610100026000190190941693909304601f8101849004840282018401909252818152949594935090830182828015611eb75780601f10611e8c57610100808354040283529160200191611eb7565b820191906000526020600020905b815481529060010190602001808311611e9a57829003601f168201915b5050505060048301805460408051602060026001851615610100026000190190941693909304601f8101849004840282018401909252818152949594935090830182828015611f475780601f10611f1c57610100808354040283529160200191611f47565b820191906000526020600020905b815481529060010190602001808311611f2a57829003601f168201915b5050505060058301805460408051602060026001851615610100026000190190941693909304601f8101849004840282018401909252818152949594935090830182828015611fd75780601f10611fac57610100808354040283529160200191611fd7565b820191906000526020600020905b815481529060010190602001808311611fba57829003601f168201915b5050505060068301805460408051602060026001851615610100026000190190941693909304601f81018490048402820184019092528181529495949350908301828280156120675780601f1061203c57610100808354040283529160200191612067565b820191906000526020600020905b81548152906001019060200180831161204a57829003601f168201915b5050505050905087565b6001866040518082805190602001908083835b602083106120a35780518252601f199092019160209182019101612084565b51815160209384036101000a600019018019909216911617905292019485525060408051948590038201852060e0860182528c86528583018c90529085018a9052606085018990526080850188905260a0850187905260c085018690528054600181018083556000928352918390208651805193979650600790920201935061213092849291019061223e565b506020828101518051612149926001850192019061223e565b5060408201518160020155606082015181600301556080820151816004015560a0820151816005015560c08201518160060155505050336001600160a01b03167f79eeacdcb3a670e5416eec80209ae7f14a15f34785d2750dbd97f04cd00c6715428989898989898960405180898152602001806020018060200188815260200187815260200186815260200185815260200184815260200183810383528a81815181526020019150805190602001908083836000838110156112af578181015183820152602001611297565b8151602081840181018051600282529282019185019190912091905280548290811061159c57fe5b828054600181600116156101000203166002900490600052602060002090601f016020900481019282601f1061227f57805160ff19168380011785556122ac565b828001600101855582156122ac579182015b828111156122ac578251825591602001919060010190612291565b506122b89291506122bc565b5090565b6122d691905b808211156122b857600081556001016122c2565b9056fea265627a7a72315820589a91d27308182dfedeb0d927e7941d4a11a6d2b8515b71f2c8073eafa1494e64736f6c634300050b0032",
  "source": "pragma solidity ^0.5.11;\r\nimport \"./finnal.sol\";\r\n\r\ncontract newdigital{\r\n   \r\n    finnal  f;\r\n     constructor(address _finnal) public {\r\n        f = finnal(_finnal);\r\n    }\r\n     \r\n event verifylist(string stuid ,string companyname,string certid,string empid,uint verifiedtime);\r\n      function addverifierdata(string memory stuid,string memory companyname,string memory certid,string memory empid) public {\r\n          //require;\r\n          emit verifylist(stuid,companyname,certid,empid,block.timestamp);\r\n      }\r\n      \r\n event rejectedlist(string stuid ,string companyname,string certid,string empid,uint rejectedtime);\r\n      function addrejecteddata(string memory stuid,string memory companyname,string memory certid,string memory empid) public {\r\n          //require;\r\n          emit rejectedlist(stuid,companyname,certid,empid,block.timestamp);\r\n      }      \r\n\r\n\r\n \r\n   \r\n     \r\n     \r\n  struct internalm{\r\n      string stuid;\r\n     string sem;\r\n     uint mark1;\r\n        uint mark2;\r\n           uint mark3;\r\n             uint mark4;\r\n               uint mark5;\r\n }\r\n  struct externalm{\r\n      string stuid;\r\n     string sem;\r\n     uint mark1;\r\n        uint mark2;\r\n           uint mark3;\r\n             uint mark4;\r\n               uint mark5;\r\n               \r\n             //   internalm mm;\r\n }\r\n \r\nstruct subject{\r\n      string stuid;\r\n     string sem;\r\n     string sub1;\r\n        string sub2;\r\n           string sub3;\r\n             string sub4;\r\n               string sub5;\r\n         \r\n }\r\n  mapping(string=>internalm[])public stuinterwise;\r\n \r\n mapping(string=>externalm[])public stuexternalwise;\r\n   mapping(string=>subject[])public subjectwise;\r\n\r\n\r\n// bytes32 [] hash;\r\nevent certyblock(uint _blno,uint time,address from);\r\nevent subjectadded(address indexed addedby,uint timestamp,string  _stuid, string  _sem, string  _sub1, string  _sub2, string  _sub3, string  _sub4, string  _sub5 );\r\n function addsubject(string memory _stuid, string memory _sem, string memory _sub1, string memory _sub2, string memory _sub3, string memory _sub4, string memory _sub5) public {\r\n  //require(stureg[_stuid]==true,\"student not registered\");\r\n \r\n     subjectwise[_stuid].push(subject({stuid:_stuid,sem:_sem,sub1:_sub1,sub2:_sub2,sub3:_sub3,sub4:_sub4,sub5:_sub5}));\r\n     emit subjectadded(msg.sender,block.timestamp,_stuid, _sem,_sub1,_sub2, _sub3,_sub4,_sub5);\r\n//subject memory temp=subject(_stuid, _sem,_sub1,_sub2, _subk3,_sub4,_sub5);\r\n   emit certyblock(block.number,block.timestamp,msg.sender);\r\n }\r\n   \r\n event externalsadded(address indexed addedby,uint timestamp, string _stid,string _sem,uint mark1,uint mark2,uint mark3,uint mark4,uint mark5);\r\n   event internalsadded( address indexed addedby,uint timestamp,string _stid,string _sem,uint mark1,uint mark2,uint mark3,uint mark4,uint mark5);\r\n function addinnternal(string memory _stuid, string memory _sem, uint _mark1, uint _mark2, uint _mark3, uint _mark4, uint _mark5)public {\r\n     stuinterwise[_sem].push(internalm({stuid:_stuid,sem:_sem,mark1:_mark1,mark2:_mark2,mark3:_mark3,mark4:_mark4,mark5:_mark5}));\r\n//require(stureg[_stuid]==true,\"student not registered\");\r\n  emit internalsadded( msg.sender,block.timestamp, _stuid, _sem, _mark1,_mark2,_mark3,_mark4,_mark5);\r\n     emit certyblock(block.number,block.timestamp,msg.sender);\r\n }\r\n  function addext(string memory _stuid, string memory _sem, uint _mark1, uint _mark2, uint _mark3, uint _mark4, uint _mark5)public {\r\n     stuexternalwise[_sem].push(externalm({stuid:_stuid,sem:_sem,mark1:_mark1,mark2:_mark2,mark3:_mark3,mark4:_mark4,mark5:_mark5}));\r\n // require(stureg[_stuid]==true,\"student not registered\");  \r\n // ustatus[_stuid]=st.ext  added;\r\n    emit externalsadded( msg.sender,block.timestamp, _stuid, _sem, _mark1,_mark2,_mark3,_mark4,_mark5);\r\n      emit certyblock(block.number,block.timestamp,msg.sender);\r\n }\r\n\r\n}",
  "sourcePath": "C:/Users/Administrator/Desktop/Blockchain Projects/Private network projects/Diditalapp_25_2/DIGITAL APPLICATION/upsteer/contracts/newdigital.sol",
  "compiler": {
    "name": "solc",
    "version": "0.5.11+commit.c082d0b4.Emscripten.clang"
  },
  "schemaVersion": "3.0.17",
  "updatedAt": "2020-03-11T10:54:06.880Z",
  "networkType": "ethereum",
  "devdoc": {
    "methods": {}
  },
  "userdoc": {
    "methods": {}
  }
}